{
  "_format": "hh-sol-artifact-1",
  "contractName": "CryptoCakez",
  "sourceName": "contracts/CryptoCakez.sol",
  "abi": [
    {
      "inputs": [],
      "stateMutability": "nonpayable",
      "type": "constructor"
    },
    {
      "anonymous": false,
      "inputs": [
        {
          "indexed": true,
          "internalType": "address",
          "name": "owner",
          "type": "address"
        },
        {
          "indexed": true,
          "internalType": "address",
          "name": "approved",
          "type": "address"
        },
        {
          "indexed": true,
          "internalType": "uint256",
          "name": "tokenId",
          "type": "uint256"
        }
      ],
      "name": "Approval",
      "type": "event"
    },
    {
      "anonymous": false,
      "inputs": [
        {
          "indexed": true,
          "internalType": "address",
          "name": "owner",
          "type": "address"
        },
        {
          "indexed": true,
          "internalType": "address",
          "name": "operator",
          "type": "address"
        },
        {
          "indexed": false,
          "internalType": "bool",
          "name": "approved",
          "type": "bool"
        }
      ],
      "name": "ApprovalForAll",
      "type": "event"
    },
    {
      "anonymous": false,
      "inputs": [
        {
          "indexed": true,
          "internalType": "address",
          "name": "previousOwner",
          "type": "address"
        },
        {
          "indexed": true,
          "internalType": "address",
          "name": "newOwner",
          "type": "address"
        }
      ],
      "name": "OwnershipTransferred",
      "type": "event"
    },
    {
      "anonymous": false,
      "inputs": [
        {
          "indexed": true,
          "internalType": "address",
          "name": "from",
          "type": "address"
        },
        {
          "indexed": true,
          "internalType": "address",
          "name": "to",
          "type": "address"
        },
        {
          "indexed": true,
          "internalType": "uint256",
          "name": "tokenId",
          "type": "uint256"
        }
      ],
      "name": "Transfer",
      "type": "event"
    },
    {
      "inputs": [],
      "name": "MAX_SUPPLY",
      "outputs": [
        {
          "internalType": "uint256",
          "name": "",
          "type": "uint256"
        }
      ],
      "stateMutability": "view",
      "type": "function"
    },
    {
      "inputs": [],
      "name": "PAYOUT_ADDRESS_1",
      "outputs": [
        {
          "internalType": "address",
          "name": "",
          "type": "address"
        }
      ],
      "stateMutability": "view",
      "type": "function"
    },
    {
      "inputs": [],
      "name": "PAYOUT_ADDRESS_2",
      "outputs": [
        {
          "internalType": "address",
          "name": "",
          "type": "address"
        }
      ],
      "stateMutability": "view",
      "type": "function"
    },
    {
      "inputs": [],
      "name": "PRICE",
      "outputs": [
        {
          "internalType": "uint256",
          "name": "",
          "type": "uint256"
        }
      ],
      "stateMutability": "view",
      "type": "function"
    },
    {
      "inputs": [
        {
          "internalType": "address",
          "name": "to",
          "type": "address"
        },
        {
          "internalType": "uint256",
          "name": "tokenId",
          "type": "uint256"
        }
      ],
      "name": "approve",
      "outputs": [],
      "stateMutability": "nonpayable",
      "type": "function"
    },
    {
      "inputs": [
        {
          "internalType": "address",
          "name": "owner",
          "type": "address"
        }
      ],
      "name": "balanceOf",
      "outputs": [
        {
          "internalType": "uint256",
          "name": "",
          "type": "uint256"
        }
      ],
      "stateMutability": "view",
      "type": "function"
    },
    {
      "inputs": [
        {
          "internalType": "uint256",
          "name": "tokenId",
          "type": "uint256"
        }
      ],
      "name": "getApproved",
      "outputs": [
        {
          "internalType": "address",
          "name": "",
          "type": "address"
        }
      ],
      "stateMutability": "view",
      "type": "function"
    },
    {
      "inputs": [
        {
          "internalType": "address",
          "name": "owner",
          "type": "address"
        },
        {
          "internalType": "address",
          "name": "operator",
          "type": "address"
        }
      ],
      "name": "isApprovedForAll",
      "outputs": [
        {
          "internalType": "bool",
          "name": "",
          "type": "bool"
        }
      ],
      "stateMutability": "view",
      "type": "function"
    },
    {
      "inputs": [],
      "name": "mint",
      "outputs": [],
      "stateMutability": "payable",
      "type": "function"
    },
    {
      "inputs": [],
      "name": "name",
      "outputs": [
        {
          "internalType": "string",
          "name": "",
          "type": "string"
        }
      ],
      "stateMutability": "view",
      "type": "function"
    },
    {
      "inputs": [],
      "name": "owner",
      "outputs": [
        {
          "internalType": "address",
          "name": "",
          "type": "address"
        }
      ],
      "stateMutability": "view",
      "type": "function"
    },
    {
      "inputs": [
        {
          "internalType": "uint256",
          "name": "tokenId",
          "type": "uint256"
        }
      ],
      "name": "ownerOf",
      "outputs": [
        {
          "internalType": "address",
          "name": "",
          "type": "address"
        }
      ],
      "stateMutability": "view",
      "type": "function"
    },
    {
      "inputs": [],
      "name": "renounceOwnership",
      "outputs": [],
      "stateMutability": "nonpayable",
      "type": "function"
    },
    {
      "inputs": [
        {
          "internalType": "address",
          "name": "from",
          "type": "address"
        },
        {
          "internalType": "address",
          "name": "to",
          "type": "address"
        },
        {
          "internalType": "uint256",
          "name": "tokenId",
          "type": "uint256"
        }
      ],
      "name": "safeTransferFrom",
      "outputs": [],
      "stateMutability": "nonpayable",
      "type": "function"
    },
    {
      "inputs": [
        {
          "internalType": "address",
          "name": "from",
          "type": "address"
        },
        {
          "internalType": "address",
          "name": "to",
          "type": "address"
        },
        {
          "internalType": "uint256",
          "name": "tokenId",
          "type": "uint256"
        },
        {
          "internalType": "bytes",
          "name": "_data",
          "type": "bytes"
        }
      ],
      "name": "safeTransferFrom",
      "outputs": [],
      "stateMutability": "nonpayable",
      "type": "function"
    },
    {
      "inputs": [
        {
          "internalType": "address",
          "name": "operator",
          "type": "address"
        },
        {
          "internalType": "bool",
          "name": "approved",
          "type": "bool"
        }
      ],
      "name": "setApprovalForAll",
      "outputs": [],
      "stateMutability": "nonpayable",
      "type": "function"
    },
    {
      "inputs": [
        {
          "internalType": "bytes4",
          "name": "interfaceId",
          "type": "bytes4"
        }
      ],
      "name": "supportsInterface",
      "outputs": [
        {
          "internalType": "bool",
          "name": "",
          "type": "bool"
        }
      ],
      "stateMutability": "view",
      "type": "function"
    },
    {
      "inputs": [],
      "name": "symbol",
      "outputs": [
        {
          "internalType": "string",
          "name": "",
          "type": "string"
        }
      ],
      "stateMutability": "view",
      "type": "function"
    },
    {
      "inputs": [
        {
          "internalType": "uint256",
          "name": "index",
          "type": "uint256"
        }
      ],
      "name": "tokenByIndex",
      "outputs": [
        {
          "internalType": "uint256",
          "name": "",
          "type": "uint256"
        }
      ],
      "stateMutability": "view",
      "type": "function"
    },
    {
      "inputs": [
        {
          "internalType": "address",
          "name": "owner",
          "type": "address"
        },
        {
          "internalType": "uint256",
          "name": "index",
          "type": "uint256"
        }
      ],
      "name": "tokenOfOwnerByIndex",
      "outputs": [
        {
          "internalType": "uint256",
          "name": "",
          "type": "uint256"
        }
      ],
      "stateMutability": "view",
      "type": "function"
    },
    {
      "inputs": [
        {
          "internalType": "uint256",
          "name": "tokenId",
          "type": "uint256"
        }
      ],
      "name": "tokenURI",
      "outputs": [
        {
          "internalType": "string",
          "name": "",
          "type": "string"
        }
      ],
      "stateMutability": "view",
      "type": "function"
    },
    {
      "inputs": [],
      "name": "totalSupply",
      "outputs": [
        {
          "internalType": "uint256",
          "name": "",
          "type": "uint256"
        }
      ],
      "stateMutability": "view",
      "type": "function"
    },
    {
      "inputs": [
        {
          "internalType": "address",
          "name": "from",
          "type": "address"
        },
        {
          "internalType": "address",
          "name": "to",
          "type": "address"
        },
        {
          "internalType": "uint256",
          "name": "tokenId",
          "type": "uint256"
        }
      ],
      "name": "transferFrom",
      "outputs": [],
      "stateMutability": "nonpayable",
      "type": "function"
    },
    {
      "inputs": [
        {
          "internalType": "address",
          "name": "newOwner",
          "type": "address"
        }
      ],
      "name": "transferOwnership",
      "outputs": [],
      "stateMutability": "nonpayable",
      "type": "function"
    },
    {
      "inputs": [],
      "name": "withdraw",
      "outputs": [],
      "stateMutability": "nonpayable",
      "type": "function"
    }
  ],
  "bytecode": "0x60806040523480156200001157600080fd5b50604080518082018252600b81526a21b93cb83a37a1b0b5b2bd60a91b60208083019182528351808501909452600584526421a0a5a2ad60d91b9084015281519192916200006291600091620000e3565b50805162000078906001906020840190620000e3565b50506001600a55506200008b3362000091565b620001c6565b600b80546001600160a01b038381166001600160a01b0319831681179093556040519116919082907f8be0079c531659141344cd1fd0a4f28419497f9722a3daafe3b4186f6b6457e090600090a35050565b828054620000f19062000189565b90600052602060002090601f01602090048101928262000115576000855562000160565b82601f106200013057805160ff191683800117855562000160565b8280016001018555821562000160579182015b828111156200016057825182559160200191906001019062000143565b506200016e92915062000172565b5090565b5b808211156200016e576000815560010162000173565b600181811c908216806200019e57607f821691505b60208210811415620001c057634e487b7160e01b600052602260045260246000fd5b50919050565b611e5780620001d66000396000f3fe6080604052600436106101665760003560e01c80636352211e116100d157806395d89b411161008a578063c87b56dd11610064578063c87b56dd146103f9578063e985e9c514610419578063f287a34c14610462578063f2fde38b1461048a57600080fd5b806395d89b41146103a4578063a22cb465146103b9578063b88d4fde146103d957600080fd5b80636352211e146102ee5780636f292b351461030e57806370a0823114610336578063715018a6146103565780638d859f3e1461036b5780638da5cb5b1461038657600080fd5b806323b872dd1161012357806323b872dd146102435780632f745c591461026357806332cb6b0c146102835780633ccfd60b1461029957806342842e0e146102ae5780634f6ccce7146102ce57600080fd5b806301ffc9a71461016b57806306fdde03146101a0578063081812fc146101c2578063095ea7b3146101fa5780631249c58b1461021c57806318160ddd14610224575b600080fd5b34801561017757600080fd5b5061018b61018636600461192a565b6104aa565b60405190151581526020015b60405180910390f35b3480156101ac57600080fd5b506101b56104d5565b604051610197919061199f565b3480156101ce57600080fd5b506101e26101dd3660046119b2565b610567565b6040516001600160a01b039091168152602001610197565b34801561020657600080fd5b5061021a6102153660046119e7565b610601565b005b61021a610717565b34801561023057600080fd5b506008545b604051908152602001610197565b34801561024f57600080fd5b5061021a61025e366004611a11565b610819565b34801561026f57600080fd5b5061023561027e3660046119e7565b61084a565b34801561028f57600080fd5b506102356107d081565b3480156102a557600080fd5b5061021a6108e0565b3480156102ba57600080fd5b5061021a6102c9366004611a11565b610a59565b3480156102da57600080fd5b506102356102e93660046119b2565b610a74565b3480156102fa57600080fd5b506101e26103093660046119b2565b610b07565b34801561031a57600080fd5b506101e273febe5d9d639e76c9cc1f4184453ba39b07fe672e81565b34801561034257600080fd5b50610235610351366004611a4d565b610b7e565b34801561036257600080fd5b5061021a610c05565b34801561037757600080fd5b5061023566470de4df82000081565b34801561039257600080fd5b50600b546001600160a01b03166101e2565b3480156103b057600080fd5b506101b5610c6b565b3480156103c557600080fd5b5061021a6103d4366004611a68565b610c7a565b3480156103e557600080fd5b5061021a6103f4366004611aba565b610d3f565b34801561040557600080fd5b506101b56104143660046119b2565b610d77565b34801561042557600080fd5b5061018b610434366004611b96565b6001600160a01b03918216600090815260056020908152604080832093909416825291909152205460ff1690565b34801561046e57600080fd5b506101e273f6f1cb7eba1bc24a4c7a9fd6f1e066a1f53cd9e281565b34801561049657600080fd5b5061021a6104a5366004611a4d565b610e52565b60006001600160e01b0319821663780e9d6360e01b14806104cf57506104cf82610f1d565b92915050565b6060600080546104e490611bc9565b80601f016020809104026020016040519081016040528092919081815260200182805461051090611bc9565b801561055d5780601f106105325761010080835404028352916020019161055d565b820191906000526020600020905b81548152906001019060200180831161054057829003601f168201915b5050505050905090565b6000818152600260205260408120546001600160a01b03166105e55760405162461bcd60e51b815260206004820152602c60248201527f4552433732313a20617070726f76656420717565727920666f72206e6f6e657860448201526b34b9ba32b73a103a37b5b2b760a11b60648201526084015b60405180910390fd5b506000908152600460205260409020546001600160a01b031690565b600061060c82610b07565b9050806001600160a01b0316836001600160a01b0316141561067a5760405162461bcd60e51b815260206004820152602160248201527f4552433732313a20617070726f76616c20746f2063757272656e74206f776e656044820152603960f91b60648201526084016105dc565b336001600160a01b038216148061069657506106968133610434565b6107085760405162461bcd60e51b815260206004820152603860248201527f4552433732313a20617070726f76652063616c6c6572206973206e6f74206f7760448201527f6e6572206e6f7220617070726f76656420666f7220616c6c000000000000000060648201526084016105dc565b6107128383610f6d565b505050565b6002600a54141561076a5760405162461bcd60e51b815260206004820152601f60248201527f5265656e7472616e637947756172643a207265656e7472616e742063616c6c0060448201526064016105dc565b6002600a556107d061077b60085490565b106107ba5760405162461bcd60e51b815260206004820152600f60248201526e4e6f206d6f7265206d696e74696e6760881b60448201526064016105dc565b66470de4df82000034146108065760405162461bcd60e51b8152602060048201526013602482015272496e636f7272656374204554482076616c756560681b60448201526064016105dc565b61081233600854610fdb565b6001600a55565b6108233382610ff9565b61083f5760405162461bcd60e51b81526004016105dc90611c04565b6107128383836110f0565b600061085583610b7e565b82106108b75760405162461bcd60e51b815260206004820152602b60248201527f455243373231456e756d657261626c653a206f776e657220696e646578206f7560448201526a74206f6620626f756e647360a81b60648201526084016105dc565b506001600160a01b03919091166000908152600660209081526040808320938352929052205490565b60006108f4600b546001600160a01b031690565b6001600160a01b0316336001600160a01b0316148061092657503373febe5d9d639e76c9cc1f4184453ba39b07fe672e145b8061094457503373f6f1cb7eba1bc24a4c7a9fd6f1e066a1f53cd9e2145b90508061097c5760405162461bcd60e51b81526004016105dc906020808252600490820152634e6f706560e01b604082015260600190565b6000610989600347611c81565b905061099d600b546001600160a01b031690565b6001600160a01b03166108fc829081150290604051600060405180830381858888f193505050501580156109d5573d6000803e3d6000fd5b5060405173febe5d9d639e76c9cc1f4184453ba39b07fe672e9082156108fc029083906000818181858888f19350505050158015610a17573d6000803e3d6000fd5b5060405173f6f1cb7eba1bc24a4c7a9fd6f1e066a1f53cd9e29082156108fc029083906000818181858888f19350505050158015610712573d6000803e3d6000fd5b61071283838360405180602001604052806000815250610d3f565b6000610a7f60085490565b8210610ae25760405162461bcd60e51b815260206004820152602c60248201527f455243373231456e756d657261626c653a20676c6f62616c20696e646578206f60448201526b7574206f6620626f756e647360a01b60648201526084016105dc565b60088281548110610af557610af5611c95565b90600052602060002001549050919050565b6000818152600260205260408120546001600160a01b0316806104cf5760405162461bcd60e51b815260206004820152602960248201527f4552433732313a206f776e657220717565727920666f72206e6f6e657869737460448201526832b73a103a37b5b2b760b91b60648201526084016105dc565b60006001600160a01b038216610be95760405162461bcd60e51b815260206004820152602a60248201527f4552433732313a2062616c616e636520717565727920666f7220746865207a65604482015269726f206164647265737360b01b60648201526084016105dc565b506001600160a01b031660009081526003602052604090205490565b600b546001600160a01b03163314610c5f5760405162461bcd60e51b815260206004820181905260248201527f4f776e61626c653a2063616c6c6572206973206e6f7420746865206f776e657260448201526064016105dc565b610c69600061129b565b565b6060600180546104e490611bc9565b6001600160a01b038216331415610cd35760405162461bcd60e51b815260206004820152601960248201527f4552433732313a20617070726f766520746f2063616c6c65720000000000000060448201526064016105dc565b3360008181526005602090815260408083206001600160a01b03871680855290835292819020805460ff191686151590811790915590519081529192917f17307eab39ab6107e8899845ad3d59bd9653f200f220920489ca2b5937696c31910160405180910390a35050565b610d493383610ff9565b610d655760405162461bcd60e51b81526004016105dc90611c04565b610d71848484846112ed565b50505050565b6000818152600260205260409020546060906001600160a01b0316610df65760405162461bcd60e51b815260206004820152602f60248201527f4552433732314d657461646174613a2055524920717565727920666f72206e6f60448201526e3732bc34b9ba32b73a103a37b5b2b760891b60648201526084016105dc565b6000610e00611320565b90506000815111610e205760405180602001604052806000815250610e4b565b80610e2a84611340565b604051602001610e3b929190611cab565b6040516020818303038152906040525b9392505050565b600b546001600160a01b03163314610eac5760405162461bcd60e51b815260206004820181905260248201527f4f776e61626c653a2063616c6c6572206973206e6f7420746865206f776e657260448201526064016105dc565b6001600160a01b038116610f115760405162461bcd60e51b815260206004820152602660248201527f4f776e61626c653a206e6577206f776e657220697320746865207a65726f206160448201526564647265737360d01b60648201526084016105dc565b610f1a8161129b565b50565b60006001600160e01b031982166380ac58cd60e01b1480610f4e57506001600160e01b03198216635b5e139f60e01b145b806104cf57506301ffc9a760e01b6001600160e01b03198316146104cf565b600081815260046020526040902080546001600160a01b0319166001600160a01b0384169081179091558190610fa282610b07565b6001600160a01b03167f8c5be1e5ebec7d5bd14f71427d1e84f3dd0314c0f7b2291e5b200ac8c7c3b92560405160405180910390a45050565b610ff582826040518060200160405280600081525061143e565b5050565b6000818152600260205260408120546001600160a01b03166110725760405162461bcd60e51b815260206004820152602c60248201527f4552433732313a206f70657261746f7220717565727920666f72206e6f6e657860448201526b34b9ba32b73a103a37b5b2b760a11b60648201526084016105dc565b600061107d83610b07565b9050806001600160a01b0316846001600160a01b031614806110b85750836001600160a01b03166110ad84610567565b6001600160a01b0316145b806110e857506001600160a01b0380821660009081526005602090815260408083209388168352929052205460ff165b949350505050565b826001600160a01b031661110382610b07565b6001600160a01b03161461116b5760405162461bcd60e51b815260206004820152602960248201527f4552433732313a207472616e73666572206f6620746f6b656e2074686174206960448201526839903737ba1037bbb760b91b60648201526084016105dc565b6001600160a01b0382166111cd5760405162461bcd60e51b8152602060048201526024808201527f4552433732313a207472616e7366657220746f20746865207a65726f206164646044820152637265737360e01b60648201526084016105dc565b6111d8838383611471565b6111e3600082610f6d565b6001600160a01b038316600090815260036020526040812080546001929061120c908490611cda565b90915550506001600160a01b038216600090815260036020526040812080546001929061123a908490611cf1565b909155505060008181526002602052604080822080546001600160a01b0319166001600160a01b0386811691821790925591518493918716917fddf252ad1be2c89b69c2b068fc378daa952ba7f163c4a11628f55a4df523b3ef91a4505050565b600b80546001600160a01b038381166001600160a01b0319831681179093556040519116919082907f8be0079c531659141344cd1fd0a4f28419497f9722a3daafe3b4186f6b6457e090600090a35050565b6112f88484846110f0565b61130484848484611529565b610d715760405162461bcd60e51b81526004016105dc90611d09565b6060604051806060016040528060278152602001611dfb60279139905090565b6060816113645750506040805180820190915260018152600360fc1b602082015290565b8160005b811561138e578061137881611d5b565b91506113879050600a83611c81565b9150611368565b60008167ffffffffffffffff8111156113a9576113a9611aa4565b6040519080825280601f01601f1916602001820160405280156113d3576020820181803683370190505b5090505b84156110e8576113e8600183611cda565b91506113f5600a86611d76565b611400906030611cf1565b60f81b81838151811061141557611415611c95565b60200101906001600160f81b031916908160001a905350611437600a86611c81565b94506113d7565b6114488383611636565b6114556000848484611529565b6107125760405162461bcd60e51b81526004016105dc90611d09565b6001600160a01b0383166114cc576114c781600880546000838152600960205260408120829055600182018355919091527ff3f7a9fe364faab93b216da50a3214154f22a0a2b415b23a84c8169e8b636ee30155565b6114ef565b816001600160a01b0316836001600160a01b0316146114ef576114ef8382611784565b6001600160a01b0382166115065761071281611821565b826001600160a01b0316826001600160a01b0316146107125761071282826118d0565b60006001600160a01b0384163b1561162b57604051630a85bd0160e11b81526001600160a01b0385169063150b7a029061156d903390899088908890600401611d8a565b602060405180830381600087803b15801561158757600080fd5b505af19250505080156115b7575060408051601f3d908101601f191682019092526115b491810190611dc7565b60015b611611573d8080156115e5576040519150601f19603f3d011682016040523d82523d6000602084013e6115ea565b606091505b5080516116095760405162461bcd60e51b81526004016105dc90611d09565b805181602001fd5b6001600160e01b031916630a85bd0160e11b1490506110e8565b506001949350505050565b6001600160a01b03821661168c5760405162461bcd60e51b815260206004820181905260248201527f4552433732313a206d696e7420746f20746865207a65726f206164647265737360448201526064016105dc565b6000818152600260205260409020546001600160a01b0316156116f15760405162461bcd60e51b815260206004820152601c60248201527f4552433732313a20746f6b656e20616c7265616479206d696e7465640000000060448201526064016105dc565b6116fd60008383611471565b6001600160a01b0382166000908152600360205260408120805460019290611726908490611cf1565b909155505060008181526002602052604080822080546001600160a01b0319166001600160a01b03861690811790915590518392907fddf252ad1be2c89b69c2b068fc378daa952ba7f163c4a11628f55a4df523b3ef908290a45050565b6000600161179184610b7e565b61179b9190611cda565b6000838152600760205260409020549091508082146117ee576001600160a01b03841660009081526006602090815260408083208584528252808320548484528184208190558352600790915290208190555b5060009182526007602090815260408084208490556001600160a01b039094168352600681528383209183525290812055565b60085460009061183390600190611cda565b6000838152600960205260408120546008805493945090928490811061185b5761185b611c95565b90600052602060002001549050806008838154811061187c5761187c611c95565b60009182526020808320909101929092558281526009909152604080822084905585825281205560088054806118b4576118b4611de4565b6001900381819060005260206000200160009055905550505050565b60006118db83610b7e565b6001600160a01b039093166000908152600660209081526040808320868452825280832085905593825260079052919091209190915550565b6001600160e01b031981168114610f1a57600080fd5b60006020828403121561193c57600080fd5b8135610e4b81611914565b60005b8381101561196257818101518382015260200161194a565b83811115610d715750506000910152565b6000815180845261198b816020860160208601611947565b601f01601f19169290920160200192915050565b602081526000610e4b6020830184611973565b6000602082840312156119c457600080fd5b5035919050565b80356001600160a01b03811681146119e257600080fd5b919050565b600080604083850312156119fa57600080fd5b611a03836119cb565b946020939093013593505050565b600080600060608486031215611a2657600080fd5b611a2f846119cb565b9250611a3d602085016119cb565b9150604084013590509250925092565b600060208284031215611a5f57600080fd5b610e4b826119cb565b60008060408385031215611a7b57600080fd5b611a84836119cb565b915060208301358015158114611a9957600080fd5b809150509250929050565b634e487b7160e01b600052604160045260246000fd5b60008060008060808587031215611ad057600080fd5b611ad9856119cb565b9350611ae7602086016119cb565b925060408501359150606085013567ffffffffffffffff80821115611b0b57600080fd5b818701915087601f830112611b1f57600080fd5b813581811115611b3157611b31611aa4565b604051601f8201601f19908116603f01168101908382118183101715611b5957611b59611aa4565b816040528281528a6020848701011115611b7257600080fd5b82602086016020830137600060208483010152809550505050505092959194509250565b60008060408385031215611ba957600080fd5b611bb2836119cb565b9150611bc0602084016119cb565b90509250929050565b600181811c90821680611bdd57607f821691505b60208210811415611bfe57634e487b7160e01b600052602260045260246000fd5b50919050565b60208082526031908201527f4552433732313a207472616e736665722063616c6c6572206973206e6f74206f6040820152701ddb995c881b9bdc88185c1c1c9bdd9959607a1b606082015260800190565b634e487b7160e01b600052601260045260246000fd5b634e487b7160e01b600052601160045260246000fd5b600082611c9057611c90611c55565b500490565b634e487b7160e01b600052603260045260246000fd5b60008351611cbd818460208801611947565b835190830190611cd1818360208801611947565b01949350505050565b600082821015611cec57611cec611c6b565b500390565b60008219821115611d0457611d04611c6b565b500190565b60208082526032908201527f4552433732313a207472616e7366657220746f206e6f6e20455243373231526560408201527131b2b4bb32b91034b6b83632b6b2b73a32b960711b606082015260800190565b6000600019821415611d6f57611d6f611c6b565b5060010190565b600082611d8557611d85611c55565b500690565b6001600160a01b0385811682528416602082015260408101839052608060608201819052600090611dbd90830184611973565b9695505050505050565b600060208284031215611dd957600080fd5b8151610e4b81611914565b634e487b7160e01b600052603160045260246000fdfe68747470733a2f2f63727970746f63616b657a2e76657263656c2e6170702f6170692f6e66742fa26469706673582212201d186ff4f08bac3cc9873a0ee78c38604341d4be9068d4eeb458c48709fc737f64736f6c63430008090033",
  "linkReferences": {},
  "deployedLinkReferences": {}
}