{
  "_format": "hh-sol-artifact-1",
  "contractName": "CryptoCakez",
  "sourceName": "contracts/CryptoCakez.sol",
  "abi": [
    {
      "inputs": [
        {
          "internalType": "string",
          "name": "customBaseURI_",
          "type": "string"
        }
      ],
      "stateMutability": "nonpayable",
      "type": "constructor"
    },
    {
      "anonymous": false,
      "inputs": [
        {
          "indexed": true,
          "internalType": "address",
          "name": "owner",
          "type": "address"
        },
        {
          "indexed": true,
          "internalType": "address",
          "name": "approved",
          "type": "address"
        },
        {
          "indexed": true,
          "internalType": "uint256",
          "name": "tokenId",
          "type": "uint256"
        }
      ],
      "name": "Approval",
      "type": "event"
    },
    {
      "anonymous": false,
      "inputs": [
        {
          "indexed": true,
          "internalType": "address",
          "name": "owner",
          "type": "address"
        },
        {
          "indexed": true,
          "internalType": "address",
          "name": "operator",
          "type": "address"
        },
        {
          "indexed": false,
          "internalType": "bool",
          "name": "approved",
          "type": "bool"
        }
      ],
      "name": "ApprovalForAll",
      "type": "event"
    },
    {
      "anonymous": false,
      "inputs": [
        {
          "indexed": true,
          "internalType": "address",
          "name": "previousOwner",
          "type": "address"
        },
        {
          "indexed": true,
          "internalType": "address",
          "name": "newOwner",
          "type": "address"
        }
      ],
      "name": "OwnershipTransferred",
      "type": "event"
    },
    {
      "anonymous": false,
      "inputs": [
        {
          "indexed": true,
          "internalType": "address",
          "name": "from",
          "type": "address"
        },
        {
          "indexed": true,
          "internalType": "address",
          "name": "to",
          "type": "address"
        },
        {
          "indexed": true,
          "internalType": "uint256",
          "name": "tokenId",
          "type": "uint256"
        }
      ],
      "name": "Transfer",
      "type": "event"
    },
    {
      "inputs": [],
      "name": "MAX_SUPPLY",
      "outputs": [
        {
          "internalType": "uint256",
          "name": "",
          "type": "uint256"
        }
      ],
      "stateMutability": "view",
      "type": "function"
    },
    {
      "inputs": [],
      "name": "PRICE",
      "outputs": [
        {
          "internalType": "uint256",
          "name": "",
          "type": "uint256"
        }
      ],
      "stateMutability": "view",
      "type": "function"
    },
    {
      "inputs": [
        {
          "internalType": "address",
          "name": "to",
          "type": "address"
        },
        {
          "internalType": "uint256",
          "name": "tokenId",
          "type": "uint256"
        }
      ],
      "name": "approve",
      "outputs": [],
      "stateMutability": "nonpayable",
      "type": "function"
    },
    {
      "inputs": [
        {
          "internalType": "address",
          "name": "owner",
          "type": "address"
        }
      ],
      "name": "balanceOf",
      "outputs": [
        {
          "internalType": "uint256",
          "name": "",
          "type": "uint256"
        }
      ],
      "stateMutability": "view",
      "type": "function"
    },
    {
      "inputs": [
        {
          "internalType": "uint256",
          "name": "tokenId",
          "type": "uint256"
        }
      ],
      "name": "getApproved",
      "outputs": [
        {
          "internalType": "address",
          "name": "",
          "type": "address"
        }
      ],
      "stateMutability": "view",
      "type": "function"
    },
    {
      "inputs": [
        {
          "internalType": "address",
          "name": "owner",
          "type": "address"
        },
        {
          "internalType": "address",
          "name": "operator",
          "type": "address"
        }
      ],
      "name": "isApprovedForAll",
      "outputs": [
        {
          "internalType": "bool",
          "name": "",
          "type": "bool"
        }
      ],
      "stateMutability": "view",
      "type": "function"
    },
    {
      "inputs": [],
      "name": "mint",
      "outputs": [],
      "stateMutability": "payable",
      "type": "function"
    },
    {
      "inputs": [],
      "name": "name",
      "outputs": [
        {
          "internalType": "string",
          "name": "",
          "type": "string"
        }
      ],
      "stateMutability": "view",
      "type": "function"
    },
    {
      "inputs": [],
      "name": "owner",
      "outputs": [
        {
          "internalType": "address",
          "name": "",
          "type": "address"
        }
      ],
      "stateMutability": "view",
      "type": "function"
    },
    {
      "inputs": [
        {
          "internalType": "uint256",
          "name": "tokenId",
          "type": "uint256"
        }
      ],
      "name": "ownerOf",
      "outputs": [
        {
          "internalType": "address",
          "name": "",
          "type": "address"
        }
      ],
      "stateMutability": "view",
      "type": "function"
    },
    {
      "inputs": [],
      "name": "renounceOwnership",
      "outputs": [],
      "stateMutability": "nonpayable",
      "type": "function"
    },
    {
      "inputs": [
        {
          "internalType": "address",
          "name": "from",
          "type": "address"
        },
        {
          "internalType": "address",
          "name": "to",
          "type": "address"
        },
        {
          "internalType": "uint256",
          "name": "tokenId",
          "type": "uint256"
        }
      ],
      "name": "safeTransferFrom",
      "outputs": [],
      "stateMutability": "nonpayable",
      "type": "function"
    },
    {
      "inputs": [
        {
          "internalType": "address",
          "name": "from",
          "type": "address"
        },
        {
          "internalType": "address",
          "name": "to",
          "type": "address"
        },
        {
          "internalType": "uint256",
          "name": "tokenId",
          "type": "uint256"
        },
        {
          "internalType": "bytes",
          "name": "_data",
          "type": "bytes"
        }
      ],
      "name": "safeTransferFrom",
      "outputs": [],
      "stateMutability": "nonpayable",
      "type": "function"
    },
    {
      "inputs": [],
      "name": "saleIsActive",
      "outputs": [
        {
          "internalType": "bool",
          "name": "",
          "type": "bool"
        }
      ],
      "stateMutability": "view",
      "type": "function"
    },
    {
      "inputs": [
        {
          "internalType": "address",
          "name": "operator",
          "type": "address"
        },
        {
          "internalType": "bool",
          "name": "approved",
          "type": "bool"
        }
      ],
      "name": "setApprovalForAll",
      "outputs": [],
      "stateMutability": "nonpayable",
      "type": "function"
    },
    {
      "inputs": [
        {
          "internalType": "string",
          "name": "customBaseURI_",
          "type": "string"
        }
      ],
      "name": "setBaseURI",
      "outputs": [],
      "stateMutability": "nonpayable",
      "type": "function"
    },
    {
      "inputs": [
        {
          "internalType": "bool",
          "name": "saleIsActive_",
          "type": "bool"
        }
      ],
      "name": "setSaleIsActive",
      "outputs": [],
      "stateMutability": "nonpayable",
      "type": "function"
    },
    {
      "inputs": [
        {
          "internalType": "bytes4",
          "name": "interfaceId",
          "type": "bytes4"
        }
      ],
      "name": "supportsInterface",
      "outputs": [
        {
          "internalType": "bool",
          "name": "",
          "type": "bool"
        }
      ],
      "stateMutability": "view",
      "type": "function"
    },
    {
      "inputs": [],
      "name": "symbol",
      "outputs": [
        {
          "internalType": "string",
          "name": "",
          "type": "string"
        }
      ],
      "stateMutability": "view",
      "type": "function"
    },
    {
      "inputs": [
        {
          "internalType": "uint256",
          "name": "index",
          "type": "uint256"
        }
      ],
      "name": "tokenByIndex",
      "outputs": [
        {
          "internalType": "uint256",
          "name": "",
          "type": "uint256"
        }
      ],
      "stateMutability": "view",
      "type": "function"
    },
    {
      "inputs": [
        {
          "internalType": "address",
          "name": "owner",
          "type": "address"
        },
        {
          "internalType": "uint256",
          "name": "index",
          "type": "uint256"
        }
      ],
      "name": "tokenOfOwnerByIndex",
      "outputs": [
        {
          "internalType": "uint256",
          "name": "",
          "type": "uint256"
        }
      ],
      "stateMutability": "view",
      "type": "function"
    },
    {
      "inputs": [
        {
          "internalType": "uint256",
          "name": "tokenId",
          "type": "uint256"
        }
      ],
      "name": "tokenURI",
      "outputs": [
        {
          "internalType": "string",
          "name": "",
          "type": "string"
        }
      ],
      "stateMutability": "view",
      "type": "function"
    },
    {
      "inputs": [],
      "name": "totalSupply",
      "outputs": [
        {
          "internalType": "uint256",
          "name": "",
          "type": "uint256"
        }
      ],
      "stateMutability": "view",
      "type": "function"
    },
    {
      "inputs": [
        {
          "internalType": "address",
          "name": "from",
          "type": "address"
        },
        {
          "internalType": "address",
          "name": "to",
          "type": "address"
        },
        {
          "internalType": "uint256",
          "name": "tokenId",
          "type": "uint256"
        }
      ],
      "name": "transferFrom",
      "outputs": [],
      "stateMutability": "nonpayable",
      "type": "function"
    },
    {
      "inputs": [
        {
          "internalType": "address",
          "name": "newOwner",
          "type": "address"
        }
      ],
      "name": "transferOwnership",
      "outputs": [],
      "stateMutability": "nonpayable",
      "type": "function"
    },
    {
      "inputs": [],
      "name": "withdraw",
      "outputs": [],
      "stateMutability": "nonpayable",
      "type": "function"
    }
  ],
  "bytecode": "0x60806040526001600b60146101000a81548160ff0219169083151502179055503480156200002c57600080fd5b506040516200426738038062004267833981810160405281019062000052919062000455565b6040518060400160405280600b81526020017f43727970746f43616b657a0000000000000000000000000000000000000000008152506040518060400160405280600581526020017f43414b455a0000000000000000000000000000000000000000000000000000008152508160009080519060200190620000d692919062000208565b508060019080519060200190620000ef92919062000208565b5050506001600a819055506200011a6200010e6200013a60201b60201c565b6200014260201b60201c565b80600c90805190602001906200013292919062000208565b50506200050b565b600033905090565b6000600b60009054906101000a900473ffffffffffffffffffffffffffffffffffffffff16905081600b60006101000a81548173ffffffffffffffffffffffffffffffffffffffff021916908373ffffffffffffffffffffffffffffffffffffffff1602179055508173ffffffffffffffffffffffffffffffffffffffff168173ffffffffffffffffffffffffffffffffffffffff167f8be0079c531659141344cd1fd0a4f28419497f9722a3daafe3b4186f6b6457e060405160405180910390a35050565b8280546200021690620004d5565b90600052602060002090601f0160209004810192826200023a576000855562000286565b82601f106200025557805160ff191683800117855562000286565b8280016001018555821562000286579182015b828111156200028557825182559160200191906001019062000268565b5b50905062000295919062000299565b5090565b5b80821115620002b45760008160009055506001016200029a565b5090565b6000604051905090565b600080fd5b600080fd5b600080fd5b600080fd5b6000601f19601f8301169050919050565b7f4e487b7100000000000000000000000000000000000000000000000000000000600052604160045260246000fd5b6200032182620002d6565b810181811067ffffffffffffffff82111715620003435762000342620002e7565b5b80604052505050565b600062000358620002b8565b905062000366828262000316565b919050565b600067ffffffffffffffff821115620003895762000388620002e7565b5b6200039482620002d6565b9050602081019050919050565b60005b83811015620003c1578082015181840152602081019050620003a4565b83811115620003d1576000848401525b50505050565b6000620003ee620003e8846200036b565b6200034c565b9050828152602081018484840111156200040d576200040c620002d1565b5b6200041a848285620003a1565b509392505050565b600082601f8301126200043a5762000439620002cc565b5b81516200044c848260208601620003d7565b91505092915050565b6000602082840312156200046e576200046d620002c2565b5b600082015167ffffffffffffffff8111156200048f576200048e620002c7565b5b6200049d8482850162000422565b91505092915050565b7f4e487b7100000000000000000000000000000000000000000000000000000000600052602260045260246000fd5b60006002820490506001821680620004ee57607f821691505b60208210811415620005055762000504620004a6565b5b50919050565b613d4c806200051b6000396000f3fe6080604052600436106101815760003560e01c806355f804b3116100d157806395d89b411161008a578063c87b56dd11610064578063c87b56dd1461054d578063e985e9c51461058a578063eb8d2444146105c7578063f2fde38b146105f257610181565b806395d89b41146104d0578063a22cb465146104fb578063b88d4fde1461052457610181565b806355f804b3146103c05780636352211e146103e957806370a0823114610426578063715018a6146104635780638d859f3e1461047a5780638da5cb5b146104a557610181565b806318160ddd1161013e57806332cb6b0c1161011857806332cb6b0c146103185780633ccfd60b1461034357806342842e0e1461035a5780634f6ccce71461038357610181565b806318160ddd1461028757806323b872dd146102b25780632f745c59146102db57610181565b806301ffc9a71461018657806302c88989146101c357806306fdde03146101ec578063081812fc14610217578063095ea7b3146102545780631249c58b1461027d575b600080fd5b34801561019257600080fd5b506101ad60048036038101906101a89190612791565b61061b565b6040516101ba91906127d9565b60405180910390f35b3480156101cf57600080fd5b506101ea60048036038101906101e59190612820565b610695565b005b3480156101f857600080fd5b5061020161072e565b60405161020e91906128e6565b60405180910390f35b34801561022357600080fd5b5061023e6004803603810190610239919061293e565b6107c0565b60405161024b91906129ac565b60405180910390f35b34801561026057600080fd5b5061027b600480360381019061027691906129f3565b610845565b005b61028561095d565b005b34801561029357600080fd5b5061029c610a62565b6040516102a99190612a42565b60405180910390f35b3480156102be57600080fd5b506102d960048036038101906102d49190612a5d565b610a6f565b005b3480156102e757600080fd5b5061030260048036038101906102fd91906129f3565b610acf565b60405161030f9190612a42565b60405180910390f35b34801561032457600080fd5b5061032d610b74565b60405161033a9190612a42565b60405180910390f35b34801561034f57600080fd5b50610358610b7a565b005b34801561036657600080fd5b50610381600480360381019061037c9190612a5d565b610da1565b005b34801561038f57600080fd5b506103aa60048036038101906103a5919061293e565b610dc1565b6040516103b79190612a42565b60405180910390f35b3480156103cc57600080fd5b506103e760048036038101906103e29190612be5565b610e32565b005b3480156103f557600080fd5b50610410600480360381019061040b919061293e565b610ec8565b60405161041d91906129ac565b60405180910390f35b34801561043257600080fd5b5061044d60048036038101906104489190612c2e565b610f7a565b60405161045a9190612a42565b60405180910390f35b34801561046f57600080fd5b50610478611032565b005b34801561048657600080fd5b5061048f6110ba565b60405161049c9190612a42565b60405180910390f35b3480156104b157600080fd5b506104ba6110c5565b6040516104c791906129ac565b60405180910390f35b3480156104dc57600080fd5b506104e56110ef565b6040516104f291906128e6565b60405180910390f35b34801561050757600080fd5b50610522600480360381019061051d9190612c5b565b611181565b005b34801561053057600080fd5b5061054b60048036038101906105469190612d3c565b611302565b005b34801561055957600080fd5b50610574600480360381019061056f919061293e565b611364565b60405161058191906128e6565b60405180910390f35b34801561059657600080fd5b506105b160048036038101906105ac9190612dbf565b61140b565b6040516105be91906127d9565b60405180910390f35b3480156105d357600080fd5b506105dc61149f565b6040516105e991906127d9565b60405180910390f35b3480156105fe57600080fd5b5061061960048036038101906106149190612c2e565b6114b2565b005b60007f780e9d63000000000000000000000000000000000000000000000000000000007bffffffffffffffffffffffffffffffffffffffffffffffffffffffff1916827bffffffffffffffffffffffffffffffffffffffffffffffffffffffff1916148061068e575061068d826115aa565b5b9050919050565b61069d61168c565b73ffffffffffffffffffffffffffffffffffffffff166106bb6110c5565b73ffffffffffffffffffffffffffffffffffffffff1614610711576040517f08c379a000000000000000000000000000000000000000000000000000000000815260040161070890612e4b565b60405180910390fd5b80600b60146101000a81548160ff02191690831515021790555050565b60606000805461073d90612e9a565b80601f016020809104026020016040519081016040528092919081815260200182805461076990612e9a565b80156107b65780601f1061078b576101008083540402835291602001916107b6565b820191906000526020600020905b81548152906001019060200180831161079957829003601f168201915b5050505050905090565b60006107cb82611694565b61080a576040517f08c379a000000000000000000000000000000000000000000000000000000000815260040161080190612f3e565b60405180910390fd5b6004600083815260200190815260200160002060009054906101000a900473ffffffffffffffffffffffffffffffffffffffff169050919050565b600061085082610ec8565b90508073ffffffffffffffffffffffffffffffffffffffff168373ffffffffffffffffffffffffffffffffffffffff1614156108c1576040517f08c379a00000000000000000000000000000000000000000000000000000000081526004016108b890612fd0565b60405180910390fd5b8073ffffffffffffffffffffffffffffffffffffffff166108e061168c565b73ffffffffffffffffffffffffffffffffffffffff16148061090f575061090e8161090961168c565b61140b565b5b61094e576040517f08c379a000000000000000000000000000000000000000000000000000000000815260040161094590613062565b60405180910390fd5b6109588383611700565b505050565b6002600a5414156109a3576040517f08c379a000000000000000000000000000000000000000000000000000000000815260040161099a906130ce565b60405180910390fd5b6002600a819055506107d06109b6610a62565b106109f6576040517f08c379a00000000000000000000000000000000000000000000000000000000081526004016109ed9061313a565b60405180910390fd5b66470de4df820000341015610a40576040517f08c379a0000000000000000000000000000000000000000000000000000000008152600401610a37906131cc565b60405180910390fd5b610a58610a4b61168c565b610a53610a62565b6117b9565b6001600a81905550565b6000600880549050905090565b610a80610a7a61168c565b826117d7565b610abf576040517f08c379a0000000000000000000000000000000000000000000000000000000008152600401610ab69061325e565b60405180910390fd5b610aca8383836118b5565b505050565b6000610ada83610f7a565b8210610b1b576040517f08c379a0000000000000000000000000000000000000000000000000000000008152600401610b12906132f0565b60405180910390fd5b600660008473ffffffffffffffffffffffffffffffffffffffff1673ffffffffffffffffffffffffffffffffffffffff168152602001908152602001600020600083815260200190815260200160002054905092915050565b6107d081565b6000610b846110c5565b73ffffffffffffffffffffffffffffffffffffffff163373ffffffffffffffffffffffffffffffffffffffff161480610bfc57507370997970c51812dc3a010c7d01b50e0d17dc79c873ffffffffffffffffffffffffffffffffffffffff163373ffffffffffffffffffffffffffffffffffffffff16145b80610c4657507370997970c51812dc3a010c7d01b50e0d17dc79c873ffffffffffffffffffffffffffffffffffffffff163373ffffffffffffffffffffffffffffffffffffffff16145b905080610c88576040517f08c379a0000000000000000000000000000000000000000000000000000000008152600401610c7f9061335c565b60405180910390fd5b6000600347610c9791906133da565b9050610ca16110c5565b73ffffffffffffffffffffffffffffffffffffffff166108fc829081150290604051600060405180830381858888f19350505050158015610ce6573d6000803e3d6000fd5b507370997970c51812dc3a010c7d01b50e0d17dc79c873ffffffffffffffffffffffffffffffffffffffff166108fc829081150290604051600060405180830381858888f19350505050158015610d41573d6000803e3d6000fd5b507370997970c51812dc3a010c7d01b50e0d17dc79c873ffffffffffffffffffffffffffffffffffffffff166108fc829081150290604051600060405180830381858888f19350505050158015610d9c573d6000803e3d6000fd5b505050565b610dbc83838360405180602001604052806000815250611302565b505050565b6000610dcb610a62565b8210610e0c576040517f08c379a0000000000000000000000000000000000000000000000000000000008152600401610e039061347d565b60405180910390fd5b60088281548110610e2057610e1f61349d565b5b90600052602060002001549050919050565b610e3a61168c565b73ffffffffffffffffffffffffffffffffffffffff16610e586110c5565b73ffffffffffffffffffffffffffffffffffffffff1614610eae576040517f08c379a0000000000000000000000000000000000000000000000000000000008152600401610ea590612e4b565b60405180910390fd5b80600c9080519060200190610ec4929190612682565b5050565b6000806002600084815260200190815260200160002060009054906101000a900473ffffffffffffffffffffffffffffffffffffffff169050600073ffffffffffffffffffffffffffffffffffffffff168173ffffffffffffffffffffffffffffffffffffffff161415610f71576040517f08c379a0000000000000000000000000000000000000000000000000000000008152600401610f689061353e565b60405180910390fd5b80915050919050565b60008073ffffffffffffffffffffffffffffffffffffffff168273ffffffffffffffffffffffffffffffffffffffff161415610feb576040517f08c379a0000000000000000000000000000000000000000000000000000000008152600401610fe2906135d0565b60405180910390fd5b600360008373ffffffffffffffffffffffffffffffffffffffff1673ffffffffffffffffffffffffffffffffffffffff168152602001908152602001600020549050919050565b61103a61168c565b73ffffffffffffffffffffffffffffffffffffffff166110586110c5565b73ffffffffffffffffffffffffffffffffffffffff16146110ae576040517f08c379a00000000000000000000000000000000000000000000000000000000081526004016110a590612e4b565b60405180910390fd5b6110b86000611b11565b565b66470de4df82000081565b6000600b60009054906101000a900473ffffffffffffffffffffffffffffffffffffffff16905090565b6060600180546110fe90612e9a565b80601f016020809104026020016040519081016040528092919081815260200182805461112a90612e9a565b80156111775780601f1061114c57610100808354040283529160200191611177565b820191906000526020600020905b81548152906001019060200180831161115a57829003601f168201915b5050505050905090565b61118961168c565b73ffffffffffffffffffffffffffffffffffffffff168273ffffffffffffffffffffffffffffffffffffffff1614156111f7576040517f08c379a00000000000000000000000000000000000000000000000000000000081526004016111ee9061363c565b60405180910390fd5b806005600061120461168c565b73ffffffffffffffffffffffffffffffffffffffff1673ffffffffffffffffffffffffffffffffffffffff16815260200190815260200160002060008473ffffffffffffffffffffffffffffffffffffffff1673ffffffffffffffffffffffffffffffffffffffff16815260200190815260200160002060006101000a81548160ff0219169083151502179055508173ffffffffffffffffffffffffffffffffffffffff166112b161168c565b73ffffffffffffffffffffffffffffffffffffffff167f17307eab39ab6107e8899845ad3d59bd9653f200f220920489ca2b5937696c31836040516112f691906127d9565b60405180910390a35050565b61131361130d61168c565b836117d7565b611352576040517f08c379a00000000000000000000000000000000000000000000000000000000081526004016113499061325e565b60405180910390fd5b61135e84848484611bd7565b50505050565b606061136f82611694565b6113ae576040517f08c379a00000000000000000000000000000000000000000000000000000000081526004016113a5906136ce565b60405180910390fd5b60006113b8611c33565b905060008151116113d85760405180602001604052806000815250611403565b806113e284611cc5565b6040516020016113f392919061372a565b6040516020818303038152906040525b915050919050565b6000600560008473ffffffffffffffffffffffffffffffffffffffff1673ffffffffffffffffffffffffffffffffffffffff16815260200190815260200160002060008373ffffffffffffffffffffffffffffffffffffffff1673ffffffffffffffffffffffffffffffffffffffff16815260200190815260200160002060009054906101000a900460ff16905092915050565b600b60149054906101000a900460ff1681565b6114ba61168c565b73ffffffffffffffffffffffffffffffffffffffff166114d86110c5565b73ffffffffffffffffffffffffffffffffffffffff161461152e576040517f08c379a000000000000000000000000000000000000000000000000000000000815260040161152590612e4b565b60405180910390fd5b600073ffffffffffffffffffffffffffffffffffffffff168173ffffffffffffffffffffffffffffffffffffffff16141561159e576040517f08c379a0000000000000000000000000000000000000000000000000000000008152600401611595906137c0565b60405180910390fd5b6115a781611b11565b50565b60007f80ac58cd000000000000000000000000000000000000000000000000000000007bffffffffffffffffffffffffffffffffffffffffffffffffffffffff1916827bffffffffffffffffffffffffffffffffffffffffffffffffffffffff1916148061167557507f5b5e139f000000000000000000000000000000000000000000000000000000007bffffffffffffffffffffffffffffffffffffffffffffffffffffffff1916827bffffffffffffffffffffffffffffffffffffffffffffffffffffffff1916145b80611685575061168482611e26565b5b9050919050565b600033905090565b60008073ffffffffffffffffffffffffffffffffffffffff166002600084815260200190815260200160002060009054906101000a900473ffffffffffffffffffffffffffffffffffffffff1673ffffffffffffffffffffffffffffffffffffffff1614159050919050565b816004600083815260200190815260200160002060006101000a81548173ffffffffffffffffffffffffffffffffffffffff021916908373ffffffffffffffffffffffffffffffffffffffff160217905550808273ffffffffffffffffffffffffffffffffffffffff1661177383610ec8565b73ffffffffffffffffffffffffffffffffffffffff167f8c5be1e5ebec7d5bd14f71427d1e84f3dd0314c0f7b2291e5b200ac8c7c3b92560405160405180910390a45050565b6117d3828260405180602001604052806000815250611e90565b5050565b60006117e282611694565b611821576040517f08c379a000000000000000000000000000000000000000000000000000000000815260040161181890613852565b60405180910390fd5b600061182c83610ec8565b90508073ffffffffffffffffffffffffffffffffffffffff168473ffffffffffffffffffffffffffffffffffffffff16148061189b57508373ffffffffffffffffffffffffffffffffffffffff16611883846107c0565b73ffffffffffffffffffffffffffffffffffffffff16145b806118ac57506118ab818561140b565b5b91505092915050565b8273ffffffffffffffffffffffffffffffffffffffff166118d582610ec8565b73ffffffffffffffffffffffffffffffffffffffff161461192b576040517f08c379a0000000000000000000000000000000000000000000000000000000008152600401611922906138e4565b60405180910390fd5b600073ffffffffffffffffffffffffffffffffffffffff168273ffffffffffffffffffffffffffffffffffffffff16141561199b576040517f08c379a000000000000000000000000000000000000000000000000000000000815260040161199290613976565b60405180910390fd5b6119a6838383611eeb565b6119b1600082611700565b6001600360008573ffffffffffffffffffffffffffffffffffffffff1673ffffffffffffffffffffffffffffffffffffffff1681526020019081526020016000206000828254611a019190613996565b925050819055506001600360008473ffffffffffffffffffffffffffffffffffffffff1673ffffffffffffffffffffffffffffffffffffffff1681526020019081526020016000206000828254611a5891906139ca565b92505081905550816002600083815260200190815260200160002060006101000a81548173ffffffffffffffffffffffffffffffffffffffff021916908373ffffffffffffffffffffffffffffffffffffffff160217905550808273ffffffffffffffffffffffffffffffffffffffff168473ffffffffffffffffffffffffffffffffffffffff167fddf252ad1be2c89b69c2b068fc378daa952ba7f163c4a11628f55a4df523b3ef60405160405180910390a4505050565b6000600b60009054906101000a900473ffffffffffffffffffffffffffffffffffffffff16905081600b60006101000a81548173ffffffffffffffffffffffffffffffffffffffff021916908373ffffffffffffffffffffffffffffffffffffffff1602179055508173ffffffffffffffffffffffffffffffffffffffff168173ffffffffffffffffffffffffffffffffffffffff167f8be0079c531659141344cd1fd0a4f28419497f9722a3daafe3b4186f6b6457e060405160405180910390a35050565b611be28484846118b5565b611bee84848484611fff565b611c2d576040517f08c379a0000000000000000000000000000000000000000000000000000000008152600401611c2490613a92565b60405180910390fd5b50505050565b6060600c8054611c4290612e9a565b80601f0160208091040260200160405190810160405280929190818152602001828054611c6e90612e9a565b8015611cbb5780601f10611c9057610100808354040283529160200191611cbb565b820191906000526020600020905b815481529060010190602001808311611c9e57829003601f168201915b5050505050905090565b60606000821415611d0d576040518060400160405280600181526020017f30000000000000000000000000000000000000000000000000000000000000008152509050611e21565b600082905060005b60008214611d3f578080611d2890613ab2565b915050600a82611d3891906133da565b9150611d15565b60008167ffffffffffffffff811115611d5b57611d5a612aba565b5b6040519080825280601f01601f191660200182016040528015611d8d5781602001600182028036833780820191505090505b5090505b60008514611e1a57600182611da69190613996565b9150600a85611db59190613afb565b6030611dc191906139ca565b60f81b818381518110611dd757611dd661349d565b5b60200101907effffffffffffffffffffffffffffffffffffffffffffffffffffffffffffff1916908160001a905350600a85611e1391906133da565b9450611d91565b8093505050505b919050565b60007f01ffc9a7000000000000000000000000000000000000000000000000000000007bffffffffffffffffffffffffffffffffffffffffffffffffffffffff1916827bffffffffffffffffffffffffffffffffffffffffffffffffffffffff1916149050919050565b611e9a8383612196565b611ea76000848484611fff565b611ee6576040517f08c379a0000000000000000000000000000000000000000000000000000000008152600401611edd90613a92565b60405180910390fd5b505050565b611ef6838383612364565b600073ffffffffffffffffffffffffffffffffffffffff168373ffffffffffffffffffffffffffffffffffffffff161415611f3957611f3481612369565b611f78565b8173ffffffffffffffffffffffffffffffffffffffff168373ffffffffffffffffffffffffffffffffffffffff1614611f7757611f7683826123b2565b5b5b600073ffffffffffffffffffffffffffffffffffffffff168273ffffffffffffffffffffffffffffffffffffffff161415611fbb57611fb68161251f565b611ffa565b8273ffffffffffffffffffffffffffffffffffffffff168273ffffffffffffffffffffffffffffffffffffffff1614611ff957611ff882826125f0565b5b5b505050565b60006120208473ffffffffffffffffffffffffffffffffffffffff1661266f565b15612189578373ffffffffffffffffffffffffffffffffffffffff1663150b7a0261204961168c565b8786866040518563ffffffff1660e01b815260040161206b9493929190613b81565b602060405180830381600087803b15801561208557600080fd5b505af19250505080156120b657506040513d601f19601f820116820180604052508101906120b39190613be2565b60015b612139573d80600081146120e6576040519150601f19603f3d011682016040523d82523d6000602084013e6120eb565b606091505b50600081511415612131576040517f08c379a000000000000000000000000000000000000000000000000000000000815260040161212890613a92565b60405180910390fd5b805181602001fd5b63150b7a0260e01b7bffffffffffffffffffffffffffffffffffffffffffffffffffffffff1916817bffffffffffffffffffffffffffffffffffffffffffffffffffffffff19161491505061218e565b600190505b949350505050565b600073ffffffffffffffffffffffffffffffffffffffff168273ffffffffffffffffffffffffffffffffffffffff161415612206576040517f08c379a00000000000000000000000000000000000000000000000000000000081526004016121fd90613c5b565b60405180910390fd5b61220f81611694565b1561224f576040517f08c379a000000000000000000000000000000000000000000000000000000000815260040161224690613cc7565b60405180910390fd5b61225b60008383611eeb565b6001600360008473ffffffffffffffffffffffffffffffffffffffff1673ffffffffffffffffffffffffffffffffffffffff16815260200190815260200160002060008282546122ab91906139ca565b92505081905550816002600083815260200190815260200160002060006101000a81548173ffffffffffffffffffffffffffffffffffffffff021916908373ffffffffffffffffffffffffffffffffffffffff160217905550808273ffffffffffffffffffffffffffffffffffffffff16600073ffffffffffffffffffffffffffffffffffffffff167fddf252ad1be2c89b69c2b068fc378daa952ba7f163c4a11628f55a4df523b3ef60405160405180910390a45050565b505050565b6008805490506009600083815260200190815260200160002081905550600881908060018154018082558091505060019003906000526020600020016000909190919091505550565b600060016123bf84610f7a565b6123c99190613996565b90506000600760008481526020019081526020016000205490508181146124ae576000600660008673ffffffffffffffffffffffffffffffffffffffff1673ffffffffffffffffffffffffffffffffffffffff168152602001908152602001600020600084815260200190815260200160002054905080600660008773ffffffffffffffffffffffffffffffffffffffff1673ffffffffffffffffffffffffffffffffffffffff168152602001908152602001600020600084815260200190815260200160002081905550816007600083815260200190815260200160002081905550505b6007600084815260200190815260200160002060009055600660008573ffffffffffffffffffffffffffffffffffffffff1673ffffffffffffffffffffffffffffffffffffffff16815260200190815260200160002060008381526020019081526020016000206000905550505050565b600060016008805490506125339190613996565b90506000600960008481526020019081526020016000205490506000600883815481106125635761256261349d565b5b9060005260206000200154905080600883815481106125855761258461349d565b5b9060005260206000200181905550816009600083815260200190815260200160002081905550600960008581526020019081526020016000206000905560088054806125d4576125d3613ce7565b5b6001900381819060005260206000200160009055905550505050565b60006125fb83610f7a565b905081600660008573ffffffffffffffffffffffffffffffffffffffff1673ffffffffffffffffffffffffffffffffffffffff168152602001908152602001600020600083815260200190815260200160002081905550806007600084815260200190815260200160002081905550505050565b600080823b905060008111915050919050565b82805461268e90612e9a565b90600052602060002090601f0160209004810192826126b057600085556126f7565b82601f106126c957805160ff19168380011785556126f7565b828001600101855582156126f7579182015b828111156126f65782518255916020019190600101906126db565b5b5090506127049190612708565b5090565b5b80821115612721576000816000905550600101612709565b5090565b6000604051905090565b600080fd5b600080fd5b60007fffffffff0000000000000000000000000000000000000000000000000000000082169050919050565b61276e81612739565b811461277957600080fd5b50565b60008135905061278b81612765565b92915050565b6000602082840312156127a7576127a661272f565b5b60006127b58482850161277c565b91505092915050565b60008115159050919050565b6127d3816127be565b82525050565b60006020820190506127ee60008301846127ca565b92915050565b6127fd816127be565b811461280857600080fd5b50565b60008135905061281a816127f4565b92915050565b6000602082840312156128365761283561272f565b5b60006128448482850161280b565b91505092915050565b600081519050919050565b600082825260208201905092915050565b60005b8381101561288757808201518184015260208101905061286c565b83811115612896576000848401525b50505050565b6000601f19601f8301169050919050565b60006128b88261284d565b6128c28185612858565b93506128d2818560208601612869565b6128db8161289c565b840191505092915050565b6000602082019050818103600083015261290081846128ad565b905092915050565b6000819050919050565b61291b81612908565b811461292657600080fd5b50565b60008135905061293881612912565b92915050565b6000602082840312156129545761295361272f565b5b600061296284828501612929565b91505092915050565b600073ffffffffffffffffffffffffffffffffffffffff82169050919050565b60006129968261296b565b9050919050565b6129a68161298b565b82525050565b60006020820190506129c1600083018461299d565b92915050565b6129d08161298b565b81146129db57600080fd5b50565b6000813590506129ed816129c7565b92915050565b60008060408385031215612a0a57612a0961272f565b5b6000612a18858286016129de565b9250506020612a2985828601612929565b9150509250929050565b612a3c81612908565b82525050565b6000602082019050612a576000830184612a33565b92915050565b600080600060608486031215612a7657612a7561272f565b5b6000612a84868287016129de565b9350506020612a95868287016129de565b9250506040612aa686828701612929565b9150509250925092565b600080fd5b600080fd5b7f4e487b7100000000000000000000000000000000000000000000000000000000600052604160045260246000fd5b612af28261289c565b810181811067ffffffffffffffff82111715612b1157612b10612aba565b5b80604052505050565b6000612b24612725565b9050612b308282612ae9565b919050565b600067ffffffffffffffff821115612b5057612b4f612aba565b5b612b598261289c565b9050602081019050919050565b82818337600083830152505050565b6000612b88612b8384612b35565b612b1a565b905082815260208101848484011115612ba457612ba3612ab5565b5b612baf848285612b66565b509392505050565b600082601f830112612bcc57612bcb612ab0565b5b8135612bdc848260208601612b75565b91505092915050565b600060208284031215612bfb57612bfa61272f565b5b600082013567ffffffffffffffff811115612c1957612c18612734565b5b612c2584828501612bb7565b91505092915050565b600060208284031215612c4457612c4361272f565b5b6000612c52848285016129de565b91505092915050565b60008060408385031215612c7257612c7161272f565b5b6000612c80858286016129de565b9250506020612c918582860161280b565b9150509250929050565b600067ffffffffffffffff821115612cb657612cb5612aba565b5b612cbf8261289c565b9050602081019050919050565b6000612cdf612cda84612c9b565b612b1a565b905082815260208101848484011115612cfb57612cfa612ab5565b5b612d06848285612b66565b509392505050565b600082601f830112612d2357612d22612ab0565b5b8135612d33848260208601612ccc565b91505092915050565b60008060008060808587031215612d5657612d5561272f565b5b6000612d64878288016129de565b9450506020612d75878288016129de565b9350506040612d8687828801612929565b925050606085013567ffffffffffffffff811115612da757612da6612734565b5b612db387828801612d0e565b91505092959194509250565b60008060408385031215612dd657612dd561272f565b5b6000612de4858286016129de565b9250506020612df5858286016129de565b9150509250929050565b7f4f776e61626c653a2063616c6c6572206973206e6f7420746865206f776e6572600082015250565b6000612e35602083612858565b9150612e4082612dff565b602082019050919050565b60006020820190508181036000830152612e6481612e28565b9050919050565b7f4e487b7100000000000000000000000000000000000000000000000000000000600052602260045260246000fd5b60006002820490506001821680612eb257607f821691505b60208210811415612ec657612ec5612e6b565b5b50919050565b7f4552433732313a20617070726f76656420717565727920666f72206e6f6e657860008201527f697374656e7420746f6b656e0000000000000000000000000000000000000000602082015250565b6000612f28602c83612858565b9150612f3382612ecc565b604082019050919050565b60006020820190508181036000830152612f5781612f1b565b9050919050565b7f4552433732313a20617070726f76616c20746f2063757272656e74206f776e6560008201527f7200000000000000000000000000000000000000000000000000000000000000602082015250565b6000612fba602183612858565b9150612fc582612f5e565b604082019050919050565b60006020820190508181036000830152612fe981612fad565b9050919050565b7f4552433732313a20617070726f76652063616c6c6572206973206e6f74206f7760008201527f6e6572206e6f7220617070726f76656420666f7220616c6c0000000000000000602082015250565b600061304c603883612858565b915061305782612ff0565b604082019050919050565b6000602082019050818103600083015261307b8161303f565b9050919050565b7f5265656e7472616e637947756172643a207265656e7472616e742063616c6c00600082015250565b60006130b8601f83612858565b91506130c382613082565b602082019050919050565b600060208201905081810360008301526130e7816130ab565b9050919050565b7f45786365656473206d617820737570706c790000000000000000000000000000600082015250565b6000613124601283612858565b915061312f826130ee565b602082019050919050565b6000602082019050818103600083015261315381613117565b9050919050565b7f496e73756666696369656e74207061796d656e742c20302e303220455448207060008201527f6572206974656d00000000000000000000000000000000000000000000000000602082015250565b60006131b6602783612858565b91506131c18261315a565b604082019050919050565b600060208201905081810360008301526131e5816131a9565b9050919050565b7f4552433732313a207472616e736665722063616c6c6572206973206e6f74206f60008201527f776e6572206e6f7220617070726f766564000000000000000000000000000000602082015250565b6000613248603183612858565b9150613253826131ec565b604082019050919050565b600060208201905081810360008301526132778161323b565b9050919050565b7f455243373231456e756d657261626c653a206f776e657220696e646578206f7560008201527f74206f6620626f756e6473000000000000000000000000000000000000000000602082015250565b60006132da602b83612858565b91506132e58261327e565b604082019050919050565b60006020820190508181036000830152613309816132cd565b9050919050565b7f4e6f706500000000000000000000000000000000000000000000000000000000600082015250565b6000613346600483612858565b915061335182613310565b602082019050919050565b6000602082019050818103600083015261337581613339565b9050919050565b7f4e487b7100000000000000000000000000000000000000000000000000000000600052601260045260246000fd5b7f4e487b7100000000000000000000000000000000000000000000000000000000600052601160045260246000fd5b60006133e582612908565b91506133f083612908565b925082613400576133ff61337c565b5b828204905092915050565b7f455243373231456e756d657261626c653a20676c6f62616c20696e646578206f60008201527f7574206f6620626f756e64730000000000000000000000000000000000000000602082015250565b6000613467602c83612858565b91506134728261340b565b604082019050919050565b600060208201905081810360008301526134968161345a565b9050919050565b7f4e487b7100000000000000000000000000000000000000000000000000000000600052603260045260246000fd5b7f4552433732313a206f776e657220717565727920666f72206e6f6e657869737460008201527f656e7420746f6b656e0000000000000000000000000000000000000000000000602082015250565b6000613528602983612858565b9150613533826134cc565b604082019050919050565b600060208201905081810360008301526135578161351b565b9050919050565b7f4552433732313a2062616c616e636520717565727920666f7220746865207a6560008201527f726f206164647265737300000000000000000000000000000000000000000000602082015250565b60006135ba602a83612858565b91506135c58261355e565b604082019050919050565b600060208201905081810360008301526135e9816135ad565b9050919050565b7f4552433732313a20617070726f766520746f2063616c6c657200000000000000600082015250565b6000613626601983612858565b9150613631826135f0565b602082019050919050565b6000602082019050818103600083015261365581613619565b9050919050565b7f4552433732314d657461646174613a2055524920717565727920666f72206e6f60008201527f6e6578697374656e7420746f6b656e0000000000000000000000000000000000602082015250565b60006136b8602f83612858565b91506136c38261365c565b604082019050919050565b600060208201905081810360008301526136e7816136ab565b9050919050565b600081905092915050565b60006137048261284d565b61370e81856136ee565b935061371e818560208601612869565b80840191505092915050565b600061373682856136f9565b915061374282846136f9565b91508190509392505050565b7f4f776e61626c653a206e6577206f776e657220697320746865207a65726f206160008201527f6464726573730000000000000000000000000000000000000000000000000000602082015250565b60006137aa602683612858565b91506137b58261374e565b604082019050919050565b600060208201905081810360008301526137d98161379d565b9050919050565b7f4552433732313a206f70657261746f7220717565727920666f72206e6f6e657860008201527f697374656e7420746f6b656e0000000000000000000000000000000000000000602082015250565b600061383c602c83612858565b9150613847826137e0565b604082019050919050565b6000602082019050818103600083015261386b8161382f565b9050919050565b7f4552433732313a207472616e73666572206f6620746f6b656e2074686174206960008201527f73206e6f74206f776e0000000000000000000000000000000000000000000000602082015250565b60006138ce602983612858565b91506138d982613872565b604082019050919050565b600060208201905081810360008301526138fd816138c1565b9050919050565b7f4552433732313a207472616e7366657220746f20746865207a65726f2061646460008201527f7265737300000000000000000000000000000000000000000000000000000000602082015250565b6000613960602483612858565b915061396b82613904565b604082019050919050565b6000602082019050818103600083015261398f81613953565b9050919050565b60006139a182612908565b91506139ac83612908565b9250828210156139bf576139be6133ab565b5b828203905092915050565b60006139d582612908565b91506139e083612908565b9250827fffffffffffffffffffffffffffffffffffffffffffffffffffffffffffffffff03821115613a1557613a146133ab565b5b828201905092915050565b7f4552433732313a207472616e7366657220746f206e6f6e20455243373231526560008201527f63656976657220696d706c656d656e7465720000000000000000000000000000602082015250565b6000613a7c603283612858565b9150613a8782613a20565b604082019050919050565b60006020820190508181036000830152613aab81613a6f565b9050919050565b6000613abd82612908565b91507fffffffffffffffffffffffffffffffffffffffffffffffffffffffffffffffff821415613af057613aef6133ab565b5b600182019050919050565b6000613b0682612908565b9150613b1183612908565b925082613b2157613b2061337c565b5b828206905092915050565b600081519050919050565b600082825260208201905092915050565b6000613b5382613b2c565b613b5d8185613b37565b9350613b6d818560208601612869565b613b768161289c565b840191505092915050565b6000608082019050613b96600083018761299d565b613ba3602083018661299d565b613bb06040830185612a33565b8181036060830152613bc28184613b48565b905095945050505050565b600081519050613bdc81612765565b92915050565b600060208284031215613bf857613bf761272f565b5b6000613c0684828501613bcd565b91505092915050565b7f4552433732313a206d696e7420746f20746865207a65726f2061646472657373600082015250565b6000613c45602083612858565b9150613c5082613c0f565b602082019050919050565b60006020820190508181036000830152613c7481613c38565b9050919050565b7f4552433732313a20746f6b656e20616c7265616479206d696e74656400000000600082015250565b6000613cb1601c83612858565b9150613cbc82613c7b565b602082019050919050565b60006020820190508181036000830152613ce081613ca4565b9050919050565b7f4e487b7100000000000000000000000000000000000000000000000000000000600052603160045260246000fdfea2646970667358221220ef124d6eb0c977f2ec4afbf6af18eb3ab6e57e83ccfb393aaa1e8af0e5b9ca2964736f6c63430008090033",
  "linkReferences": {},
  "deployedLinkReferences": {}
}