{
  "_format": "hh-sol-artifact-1",
  "contractName": "CryptoCakez",
  "sourceName": "contracts/CryptoCakez.sol",
  "abi": [
    {
      "inputs": [],
      "stateMutability": "nonpayable",
      "type": "constructor"
    },
    {
      "anonymous": false,
      "inputs": [
        {
          "indexed": true,
          "internalType": "address",
          "name": "owner",
          "type": "address"
        },
        {
          "indexed": true,
          "internalType": "address",
          "name": "approved",
          "type": "address"
        },
        {
          "indexed": true,
          "internalType": "uint256",
          "name": "tokenId",
          "type": "uint256"
        }
      ],
      "name": "Approval",
      "type": "event"
    },
    {
      "anonymous": false,
      "inputs": [
        {
          "indexed": true,
          "internalType": "address",
          "name": "owner",
          "type": "address"
        },
        {
          "indexed": true,
          "internalType": "address",
          "name": "operator",
          "type": "address"
        },
        {
          "indexed": false,
          "internalType": "bool",
          "name": "approved",
          "type": "bool"
        }
      ],
      "name": "ApprovalForAll",
      "type": "event"
    },
    {
      "anonymous": false,
      "inputs": [
        {
          "indexed": true,
          "internalType": "address",
          "name": "previousOwner",
          "type": "address"
        },
        {
          "indexed": true,
          "internalType": "address",
          "name": "newOwner",
          "type": "address"
        }
      ],
      "name": "OwnershipTransferred",
      "type": "event"
    },
    {
      "anonymous": false,
      "inputs": [
        {
          "indexed": true,
          "internalType": "address",
          "name": "from",
          "type": "address"
        },
        {
          "indexed": true,
          "internalType": "address",
          "name": "to",
          "type": "address"
        },
        {
          "indexed": true,
          "internalType": "uint256",
          "name": "tokenId",
          "type": "uint256"
        }
      ],
      "name": "Transfer",
      "type": "event"
    },
    {
      "inputs": [],
      "name": "MAX_SUPPLY",
      "outputs": [
        {
          "internalType": "uint256",
          "name": "",
          "type": "uint256"
        }
      ],
      "stateMutability": "view",
      "type": "function"
    },
    {
      "inputs": [],
      "name": "PRICE",
      "outputs": [
        {
          "internalType": "uint256",
          "name": "",
          "type": "uint256"
        }
      ],
      "stateMutability": "view",
      "type": "function"
    },
    {
      "inputs": [
        {
          "internalType": "address",
          "name": "to",
          "type": "address"
        },
        {
          "internalType": "uint256",
          "name": "tokenId",
          "type": "uint256"
        }
      ],
      "name": "approve",
      "outputs": [],
      "stateMutability": "nonpayable",
      "type": "function"
    },
    {
      "inputs": [
        {
          "internalType": "address",
          "name": "owner",
          "type": "address"
        }
      ],
      "name": "balanceOf",
      "outputs": [
        {
          "internalType": "uint256",
          "name": "",
          "type": "uint256"
        }
      ],
      "stateMutability": "view",
      "type": "function"
    },
    {
      "inputs": [
        {
          "internalType": "uint256",
          "name": "tokenId",
          "type": "uint256"
        }
      ],
      "name": "getApproved",
      "outputs": [
        {
          "internalType": "address",
          "name": "",
          "type": "address"
        }
      ],
      "stateMutability": "view",
      "type": "function"
    },
    {
      "inputs": [
        {
          "internalType": "address",
          "name": "owner",
          "type": "address"
        },
        {
          "internalType": "address",
          "name": "operator",
          "type": "address"
        }
      ],
      "name": "isApprovedForAll",
      "outputs": [
        {
          "internalType": "bool",
          "name": "",
          "type": "bool"
        }
      ],
      "stateMutability": "view",
      "type": "function"
    },
    {
      "inputs": [],
      "name": "mint",
      "outputs": [],
      "stateMutability": "payable",
      "type": "function"
    },
    {
      "inputs": [],
      "name": "name",
      "outputs": [
        {
          "internalType": "string",
          "name": "",
          "type": "string"
        }
      ],
      "stateMutability": "view",
      "type": "function"
    },
    {
      "inputs": [],
      "name": "owner",
      "outputs": [
        {
          "internalType": "address",
          "name": "",
          "type": "address"
        }
      ],
      "stateMutability": "view",
      "type": "function"
    },
    {
      "inputs": [
        {
          "internalType": "uint256",
          "name": "tokenId",
          "type": "uint256"
        }
      ],
      "name": "ownerOf",
      "outputs": [
        {
          "internalType": "address",
          "name": "",
          "type": "address"
        }
      ],
      "stateMutability": "view",
      "type": "function"
    },
    {
      "inputs": [],
      "name": "renounceOwnership",
      "outputs": [],
      "stateMutability": "nonpayable",
      "type": "function"
    },
    {
      "inputs": [
        {
          "internalType": "address",
          "name": "from",
          "type": "address"
        },
        {
          "internalType": "address",
          "name": "to",
          "type": "address"
        },
        {
          "internalType": "uint256",
          "name": "tokenId",
          "type": "uint256"
        }
      ],
      "name": "safeTransferFrom",
      "outputs": [],
      "stateMutability": "nonpayable",
      "type": "function"
    },
    {
      "inputs": [
        {
          "internalType": "address",
          "name": "from",
          "type": "address"
        },
        {
          "internalType": "address",
          "name": "to",
          "type": "address"
        },
        {
          "internalType": "uint256",
          "name": "tokenId",
          "type": "uint256"
        },
        {
          "internalType": "bytes",
          "name": "_data",
          "type": "bytes"
        }
      ],
      "name": "safeTransferFrom",
      "outputs": [],
      "stateMutability": "nonpayable",
      "type": "function"
    },
    {
      "inputs": [],
      "name": "saleIsActive",
      "outputs": [
        {
          "internalType": "bool",
          "name": "",
          "type": "bool"
        }
      ],
      "stateMutability": "view",
      "type": "function"
    },
    {
      "inputs": [
        {
          "internalType": "address",
          "name": "operator",
          "type": "address"
        },
        {
          "internalType": "bool",
          "name": "approved",
          "type": "bool"
        }
      ],
      "name": "setApprovalForAll",
      "outputs": [],
      "stateMutability": "nonpayable",
      "type": "function"
    },
    {
      "inputs": [
        {
          "internalType": "bool",
          "name": "saleIsActive_",
          "type": "bool"
        }
      ],
      "name": "setSaleIsActive",
      "outputs": [],
      "stateMutability": "nonpayable",
      "type": "function"
    },
    {
      "inputs": [
        {
          "internalType": "bytes4",
          "name": "interfaceId",
          "type": "bytes4"
        }
      ],
      "name": "supportsInterface",
      "outputs": [
        {
          "internalType": "bool",
          "name": "",
          "type": "bool"
        }
      ],
      "stateMutability": "view",
      "type": "function"
    },
    {
      "inputs": [],
      "name": "symbol",
      "outputs": [
        {
          "internalType": "string",
          "name": "",
          "type": "string"
        }
      ],
      "stateMutability": "view",
      "type": "function"
    },
    {
      "inputs": [
        {
          "internalType": "uint256",
          "name": "index",
          "type": "uint256"
        }
      ],
      "name": "tokenByIndex",
      "outputs": [
        {
          "internalType": "uint256",
          "name": "",
          "type": "uint256"
        }
      ],
      "stateMutability": "view",
      "type": "function"
    },
    {
      "inputs": [
        {
          "internalType": "address",
          "name": "owner",
          "type": "address"
        },
        {
          "internalType": "uint256",
          "name": "index",
          "type": "uint256"
        }
      ],
      "name": "tokenOfOwnerByIndex",
      "outputs": [
        {
          "internalType": "uint256",
          "name": "",
          "type": "uint256"
        }
      ],
      "stateMutability": "view",
      "type": "function"
    },
    {
      "inputs": [
        {
          "internalType": "uint256",
          "name": "tokenId",
          "type": "uint256"
        }
      ],
      "name": "tokenURI",
      "outputs": [
        {
          "internalType": "string",
          "name": "",
          "type": "string"
        }
      ],
      "stateMutability": "view",
      "type": "function"
    },
    {
      "inputs": [],
      "name": "totalSupply",
      "outputs": [
        {
          "internalType": "uint256",
          "name": "",
          "type": "uint256"
        }
      ],
      "stateMutability": "view",
      "type": "function"
    },
    {
      "inputs": [
        {
          "internalType": "address",
          "name": "from",
          "type": "address"
        },
        {
          "internalType": "address",
          "name": "to",
          "type": "address"
        },
        {
          "internalType": "uint256",
          "name": "tokenId",
          "type": "uint256"
        }
      ],
      "name": "transferFrom",
      "outputs": [],
      "stateMutability": "nonpayable",
      "type": "function"
    },
    {
      "inputs": [
        {
          "internalType": "address",
          "name": "newOwner",
          "type": "address"
        }
      ],
      "name": "transferOwnership",
      "outputs": [],
      "stateMutability": "nonpayable",
      "type": "function"
    },
    {
      "inputs": [],
      "name": "withdraw",
      "outputs": [],
      "stateMutability": "nonpayable",
      "type": "function"
    }
  ],
  "bytecode": "0x60806040526001600b60146101000a81548160ff0219169083151502179055503480156200002c57600080fd5b506040518060400160405280600b81526020017f43727970746f43616b657a0000000000000000000000000000000000000000008152506040518060400160405280600581526020017f43414b455a0000000000000000000000000000000000000000000000000000008152508160009080519060200190620000b1929190620001c9565b508060019080519060200190620000ca929190620001c9565b5050506001600a81905550620000f5620000e9620000fb60201b60201c565b6200010360201b60201c565b620002de565b600033905090565b6000600b60009054906101000a900473ffffffffffffffffffffffffffffffffffffffff16905081600b60006101000a81548173ffffffffffffffffffffffffffffffffffffffff021916908373ffffffffffffffffffffffffffffffffffffffff1602179055508173ffffffffffffffffffffffffffffffffffffffff168173ffffffffffffffffffffffffffffffffffffffff167f8be0079c531659141344cd1fd0a4f28419497f9722a3daafe3b4186f6b6457e060405160405180910390a35050565b828054620001d790620002a8565b90600052602060002090601f016020900481019282620001fb576000855562000247565b82601f106200021657805160ff191683800117855562000247565b8280016001018555821562000247579182015b828111156200024657825182559160200191906001019062000229565b5b5090506200025691906200025a565b5090565b5b80821115620002755760008160009055506001016200025b565b5090565b7f4e487b7100000000000000000000000000000000000000000000000000000000600052602260045260246000fd5b60006002820490506001821680620002c157607f821691505b60208210811415620002d857620002d762000279565b5b50919050565b613a7480620002ee6000396000f3fe6080604052600436106101665760003560e01c80634f6ccce7116100d157806395d89b411161008a578063c87b56dd11610064578063c87b56dd14610509578063e985e9c514610546578063eb8d244414610583578063f2fde38b146105ae57610166565b806395d89b411461048c578063a22cb465146104b7578063b88d4fde146104e057610166565b80634f6ccce7146103685780636352211e146103a557806370a08231146103e2578063715018a61461041f5780638d859f3e146104365780638da5cb5b1461046157610166565b806318160ddd1161012357806318160ddd1461026c57806323b872dd146102975780632f745c59146102c057806332cb6b0c146102fd5780633ccfd60b1461032857806342842e0e1461033f57610166565b806301ffc9a71461016b57806302c88989146101a857806306fdde03146101d1578063081812fc146101fc578063095ea7b3146102395780631249c58b14610262575b600080fd5b34801561017757600080fd5b50610192600480360381019061018d91906125a2565b6105d7565b60405161019f91906125ea565b60405180910390f35b3480156101b457600080fd5b506101cf60048036038101906101ca9190612631565b610651565b005b3480156101dd57600080fd5b506101e66106ea565b6040516101f391906126f7565b60405180910390f35b34801561020857600080fd5b50610223600480360381019061021e919061274f565b61077c565b60405161023091906127bd565b60405180910390f35b34801561024557600080fd5b50610260600480360381019061025b9190612804565b610801565b005b61026a610919565b005b34801561027857600080fd5b50610281610a1e565b60405161028e9190612853565b60405180910390f35b3480156102a357600080fd5b506102be60048036038101906102b9919061286e565b610a2b565b005b3480156102cc57600080fd5b506102e760048036038101906102e29190612804565b610a8b565b6040516102f49190612853565b60405180910390f35b34801561030957600080fd5b50610312610b30565b60405161031f9190612853565b60405180910390f35b34801561033457600080fd5b5061033d610b36565b005b34801561034b57600080fd5b506103666004803603810190610361919061286e565b610d5d565b005b34801561037457600080fd5b5061038f600480360381019061038a919061274f565b610d7d565b60405161039c9190612853565b60405180910390f35b3480156103b157600080fd5b506103cc60048036038101906103c7919061274f565b610dee565b6040516103d991906127bd565b60405180910390f35b3480156103ee57600080fd5b50610409600480360381019061040491906128c1565b610ea0565b6040516104169190612853565b60405180910390f35b34801561042b57600080fd5b50610434610f58565b005b34801561044257600080fd5b5061044b610fe0565b6040516104589190612853565b60405180910390f35b34801561046d57600080fd5b50610476610feb565b60405161048391906127bd565b60405180910390f35b34801561049857600080fd5b506104a1611015565b6040516104ae91906126f7565b60405180910390f35b3480156104c357600080fd5b506104de60048036038101906104d991906128ee565b6110a7565b005b3480156104ec57600080fd5b5061050760048036038101906105029190612a63565b611228565b005b34801561051557600080fd5b50610530600480360381019061052b919061274f565b61128a565b60405161053d91906126f7565b60405180910390f35b34801561055257600080fd5b5061056d60048036038101906105689190612ae6565b611331565b60405161057a91906125ea565b60405180910390f35b34801561058f57600080fd5b506105986113c5565b6040516105a591906125ea565b60405180910390f35b3480156105ba57600080fd5b506105d560048036038101906105d091906128c1565b6113d8565b005b60007f780e9d63000000000000000000000000000000000000000000000000000000007bffffffffffffffffffffffffffffffffffffffffffffffffffffffff1916827bffffffffffffffffffffffffffffffffffffffffffffffffffffffff1916148061064a5750610649826114d0565b5b9050919050565b6106596115b2565b73ffffffffffffffffffffffffffffffffffffffff16610677610feb565b73ffffffffffffffffffffffffffffffffffffffff16146106cd576040517f08c379a00000000000000000000000000000000000000000000000000000000081526004016106c490612b72565b60405180910390fd5b80600b60146101000a81548160ff02191690831515021790555050565b6060600080546106f990612bc1565b80601f016020809104026020016040519081016040528092919081815260200182805461072590612bc1565b80156107725780601f1061074757610100808354040283529160200191610772565b820191906000526020600020905b81548152906001019060200180831161075557829003601f168201915b5050505050905090565b6000610787826115ba565b6107c6576040517f08c379a00000000000000000000000000000000000000000000000000000000081526004016107bd90612c65565b60405180910390fd5b6004600083815260200190815260200160002060009054906101000a900473ffffffffffffffffffffffffffffffffffffffff169050919050565b600061080c82610dee565b90508073ffffffffffffffffffffffffffffffffffffffff168373ffffffffffffffffffffffffffffffffffffffff16141561087d576040517f08c379a000000000000000000000000000000000000000000000000000000000815260040161087490612cf7565b60405180910390fd5b8073ffffffffffffffffffffffffffffffffffffffff1661089c6115b2565b73ffffffffffffffffffffffffffffffffffffffff1614806108cb57506108ca816108c56115b2565b611331565b5b61090a576040517f08c379a000000000000000000000000000000000000000000000000000000000815260040161090190612d89565b60405180910390fd5b6109148383611626565b505050565b6002600a54141561095f576040517f08c379a000000000000000000000000000000000000000000000000000000000815260040161095690612df5565b60405180910390fd5b6002600a819055506107d0610972610a1e565b106109b2576040517f08c379a00000000000000000000000000000000000000000000000000000000081526004016109a990612e61565b60405180910390fd5b66470de4df8200003410156109fc576040517f08c379a00000000000000000000000000000000000000000000000000000000081526004016109f390612ecd565b60405180910390fd5b610a14610a076115b2565b610a0f610a1e565b6116df565b6001600a81905550565b6000600880549050905090565b610a3c610a366115b2565b826116fd565b610a7b576040517f08c379a0000000000000000000000000000000000000000000000000000000008152600401610a7290612f5f565b60405180910390fd5b610a868383836117db565b505050565b6000610a9683610ea0565b8210610ad7576040517f08c379a0000000000000000000000000000000000000000000000000000000008152600401610ace90612ff1565b60405180910390fd5b600660008473ffffffffffffffffffffffffffffffffffffffff1673ffffffffffffffffffffffffffffffffffffffff168152602001908152602001600020600083815260200190815260200160002054905092915050565b6107d081565b6000610b40610feb565b73ffffffffffffffffffffffffffffffffffffffff163373ffffffffffffffffffffffffffffffffffffffff161480610bb857507370997970c51812dc3a010c7d01b50e0d17dc79c873ffffffffffffffffffffffffffffffffffffffff163373ffffffffffffffffffffffffffffffffffffffff16145b80610c0257507370997970c51812dc3a010c7d01b50e0d17dc79c873ffffffffffffffffffffffffffffffffffffffff163373ffffffffffffffffffffffffffffffffffffffff16145b905080610c44576040517f08c379a0000000000000000000000000000000000000000000000000000000008152600401610c3b9061305d565b60405180910390fd5b6000600347610c5391906130db565b9050610c5d610feb565b73ffffffffffffffffffffffffffffffffffffffff166108fc829081150290604051600060405180830381858888f19350505050158015610ca2573d6000803e3d6000fd5b507370997970c51812dc3a010c7d01b50e0d17dc79c873ffffffffffffffffffffffffffffffffffffffff166108fc829081150290604051600060405180830381858888f19350505050158015610cfd573d6000803e3d6000fd5b507370997970c51812dc3a010c7d01b50e0d17dc79c873ffffffffffffffffffffffffffffffffffffffff166108fc829081150290604051600060405180830381858888f19350505050158015610d58573d6000803e3d6000fd5b505050565b610d7883838360405180602001604052806000815250611228565b505050565b6000610d87610a1e565b8210610dc8576040517f08c379a0000000000000000000000000000000000000000000000000000000008152600401610dbf9061317e565b60405180910390fd5b60088281548110610ddc57610ddb61319e565b5b90600052602060002001549050919050565b6000806002600084815260200190815260200160002060009054906101000a900473ffffffffffffffffffffffffffffffffffffffff169050600073ffffffffffffffffffffffffffffffffffffffff168173ffffffffffffffffffffffffffffffffffffffff161415610e97576040517f08c379a0000000000000000000000000000000000000000000000000000000008152600401610e8e9061323f565b60405180910390fd5b80915050919050565b60008073ffffffffffffffffffffffffffffffffffffffff168273ffffffffffffffffffffffffffffffffffffffff161415610f11576040517f08c379a0000000000000000000000000000000000000000000000000000000008152600401610f08906132d1565b60405180910390fd5b600360008373ffffffffffffffffffffffffffffffffffffffff1673ffffffffffffffffffffffffffffffffffffffff168152602001908152602001600020549050919050565b610f606115b2565b73ffffffffffffffffffffffffffffffffffffffff16610f7e610feb565b73ffffffffffffffffffffffffffffffffffffffff1614610fd4576040517f08c379a0000000000000000000000000000000000000000000000000000000008152600401610fcb90612b72565b60405180910390fd5b610fde6000611a37565b565b66470de4df82000081565b6000600b60009054906101000a900473ffffffffffffffffffffffffffffffffffffffff16905090565b60606001805461102490612bc1565b80601f016020809104026020016040519081016040528092919081815260200182805461105090612bc1565b801561109d5780601f106110725761010080835404028352916020019161109d565b820191906000526020600020905b81548152906001019060200180831161108057829003601f168201915b5050505050905090565b6110af6115b2565b73ffffffffffffffffffffffffffffffffffffffff168273ffffffffffffffffffffffffffffffffffffffff16141561111d576040517f08c379a00000000000000000000000000000000000000000000000000000000081526004016111149061333d565b60405180910390fd5b806005600061112a6115b2565b73ffffffffffffffffffffffffffffffffffffffff1673ffffffffffffffffffffffffffffffffffffffff16815260200190815260200160002060008473ffffffffffffffffffffffffffffffffffffffff1673ffffffffffffffffffffffffffffffffffffffff16815260200190815260200160002060006101000a81548160ff0219169083151502179055508173ffffffffffffffffffffffffffffffffffffffff166111d76115b2565b73ffffffffffffffffffffffffffffffffffffffff167f17307eab39ab6107e8899845ad3d59bd9653f200f220920489ca2b5937696c318360405161121c91906125ea565b60405180910390a35050565b6112396112336115b2565b836116fd565b611278576040517f08c379a000000000000000000000000000000000000000000000000000000000815260040161126f90612f5f565b60405180910390fd5b61128484848484611afd565b50505050565b6060611295826115ba565b6112d4576040517f08c379a00000000000000000000000000000000000000000000000000000000081526004016112cb906133cf565b60405180910390fd5b60006112de611b59565b905060008151116112fe5760405180602001604052806000815250611329565b8061130884611b79565b60405160200161131992919061342b565b6040516020818303038152906040525b915050919050565b6000600560008473ffffffffffffffffffffffffffffffffffffffff1673ffffffffffffffffffffffffffffffffffffffff16815260200190815260200160002060008373ffffffffffffffffffffffffffffffffffffffff1673ffffffffffffffffffffffffffffffffffffffff16815260200190815260200160002060009054906101000a900460ff16905092915050565b600b60149054906101000a900460ff1681565b6113e06115b2565b73ffffffffffffffffffffffffffffffffffffffff166113fe610feb565b73ffffffffffffffffffffffffffffffffffffffff1614611454576040517f08c379a000000000000000000000000000000000000000000000000000000000815260040161144b90612b72565b60405180910390fd5b600073ffffffffffffffffffffffffffffffffffffffff168173ffffffffffffffffffffffffffffffffffffffff1614156114c4576040517f08c379a00000000000000000000000000000000000000000000000000000000081526004016114bb906134c1565b60405180910390fd5b6114cd81611a37565b50565b60007f80ac58cd000000000000000000000000000000000000000000000000000000007bffffffffffffffffffffffffffffffffffffffffffffffffffffffff1916827bffffffffffffffffffffffffffffffffffffffffffffffffffffffff1916148061159b57507f5b5e139f000000000000000000000000000000000000000000000000000000007bffffffffffffffffffffffffffffffffffffffffffffffffffffffff1916827bffffffffffffffffffffffffffffffffffffffffffffffffffffffff1916145b806115ab57506115aa82611cda565b5b9050919050565b600033905090565b60008073ffffffffffffffffffffffffffffffffffffffff166002600084815260200190815260200160002060009054906101000a900473ffffffffffffffffffffffffffffffffffffffff1673ffffffffffffffffffffffffffffffffffffffff1614159050919050565b816004600083815260200190815260200160002060006101000a81548173ffffffffffffffffffffffffffffffffffffffff021916908373ffffffffffffffffffffffffffffffffffffffff160217905550808273ffffffffffffffffffffffffffffffffffffffff1661169983610dee565b73ffffffffffffffffffffffffffffffffffffffff167f8c5be1e5ebec7d5bd14f71427d1e84f3dd0314c0f7b2291e5b200ac8c7c3b92560405160405180910390a45050565b6116f9828260405180602001604052806000815250611d44565b5050565b6000611708826115ba565b611747576040517f08c379a000000000000000000000000000000000000000000000000000000000815260040161173e90613553565b60405180910390fd5b600061175283610dee565b90508073ffffffffffffffffffffffffffffffffffffffff168473ffffffffffffffffffffffffffffffffffffffff1614806117c157508373ffffffffffffffffffffffffffffffffffffffff166117a98461077c565b73ffffffffffffffffffffffffffffffffffffffff16145b806117d257506117d18185611331565b5b91505092915050565b8273ffffffffffffffffffffffffffffffffffffffff166117fb82610dee565b73ffffffffffffffffffffffffffffffffffffffff1614611851576040517f08c379a0000000000000000000000000000000000000000000000000000000008152600401611848906135e5565b60405180910390fd5b600073ffffffffffffffffffffffffffffffffffffffff168273ffffffffffffffffffffffffffffffffffffffff1614156118c1576040517f08c379a00000000000000000000000000000000000000000000000000000000081526004016118b890613677565b60405180910390fd5b6118cc838383611d9f565b6118d7600082611626565b6001600360008573ffffffffffffffffffffffffffffffffffffffff1673ffffffffffffffffffffffffffffffffffffffff16815260200190815260200160002060008282546119279190613697565b925050819055506001600360008473ffffffffffffffffffffffffffffffffffffffff1673ffffffffffffffffffffffffffffffffffffffff168152602001908152602001600020600082825461197e91906136cb565b92505081905550816002600083815260200190815260200160002060006101000a81548173ffffffffffffffffffffffffffffffffffffffff021916908373ffffffffffffffffffffffffffffffffffffffff160217905550808273ffffffffffffffffffffffffffffffffffffffff168473ffffffffffffffffffffffffffffffffffffffff167fddf252ad1be2c89b69c2b068fc378daa952ba7f163c4a11628f55a4df523b3ef60405160405180910390a4505050565b6000600b60009054906101000a900473ffffffffffffffffffffffffffffffffffffffff16905081600b60006101000a81548173ffffffffffffffffffffffffffffffffffffffff021916908373ffffffffffffffffffffffffffffffffffffffff1602179055508173ffffffffffffffffffffffffffffffffffffffff168173ffffffffffffffffffffffffffffffffffffffff167f8be0079c531659141344cd1fd0a4f28419497f9722a3daafe3b4186f6b6457e060405160405180910390a35050565b611b088484846117db565b611b1484848484611eb3565b611b53576040517f08c379a0000000000000000000000000000000000000000000000000000000008152600401611b4a90613793565b60405180910390fd5b50505050565b6060604051806060016040528060278152602001613a1860279139905090565b60606000821415611bc1576040518060400160405280600181526020017f30000000000000000000000000000000000000000000000000000000000000008152509050611cd5565b600082905060005b60008214611bf3578080611bdc906137b3565b915050600a82611bec91906130db565b9150611bc9565b60008167ffffffffffffffff811115611c0f57611c0e612938565b5b6040519080825280601f01601f191660200182016040528015611c415781602001600182028036833780820191505090505b5090505b60008514611cce57600182611c5a9190613697565b9150600a85611c6991906137fc565b6030611c7591906136cb565b60f81b818381518110611c8b57611c8a61319e565b5b60200101907effffffffffffffffffffffffffffffffffffffffffffffffffffffffffffff1916908160001a905350600a85611cc791906130db565b9450611c45565b8093505050505b919050565b60007f01ffc9a7000000000000000000000000000000000000000000000000000000007bffffffffffffffffffffffffffffffffffffffffffffffffffffffff1916827bffffffffffffffffffffffffffffffffffffffffffffffffffffffff1916149050919050565b611d4e838361204a565b611d5b6000848484611eb3565b611d9a576040517f08c379a0000000000000000000000000000000000000000000000000000000008152600401611d9190613793565b60405180910390fd5b505050565b611daa838383612218565b600073ffffffffffffffffffffffffffffffffffffffff168373ffffffffffffffffffffffffffffffffffffffff161415611ded57611de88161221d565b611e2c565b8173ffffffffffffffffffffffffffffffffffffffff168373ffffffffffffffffffffffffffffffffffffffff1614611e2b57611e2a8382612266565b5b5b600073ffffffffffffffffffffffffffffffffffffffff168273ffffffffffffffffffffffffffffffffffffffff161415611e6f57611e6a816123d3565b611eae565b8273ffffffffffffffffffffffffffffffffffffffff168273ffffffffffffffffffffffffffffffffffffffff1614611ead57611eac82826124a4565b5b5b505050565b6000611ed48473ffffffffffffffffffffffffffffffffffffffff16612523565b1561203d578373ffffffffffffffffffffffffffffffffffffffff1663150b7a02611efd6115b2565b8786866040518563ffffffff1660e01b8152600401611f1f9493929190613882565b602060405180830381600087803b158015611f3957600080fd5b505af1925050508015611f6a57506040513d601f19601f82011682018060405250810190611f6791906138e3565b60015b611fed573d8060008114611f9a576040519150601f19603f3d011682016040523d82523d6000602084013e611f9f565b606091505b50600081511415611fe5576040517f08c379a0000000000000000000000000000000000000000000000000000000008152600401611fdc90613793565b60405180910390fd5b805181602001fd5b63150b7a0260e01b7bffffffffffffffffffffffffffffffffffffffffffffffffffffffff1916817bffffffffffffffffffffffffffffffffffffffffffffffffffffffff191614915050612042565b600190505b949350505050565b600073ffffffffffffffffffffffffffffffffffffffff168273ffffffffffffffffffffffffffffffffffffffff1614156120ba576040517f08c379a00000000000000000000000000000000000000000000000000000000081526004016120b19061395c565b60405180910390fd5b6120c3816115ba565b15612103576040517f08c379a00000000000000000000000000000000000000000000000000000000081526004016120fa906139c8565b60405180910390fd5b61210f60008383611d9f565b6001600360008473ffffffffffffffffffffffffffffffffffffffff1673ffffffffffffffffffffffffffffffffffffffff168152602001908152602001600020600082825461215f91906136cb565b92505081905550816002600083815260200190815260200160002060006101000a81548173ffffffffffffffffffffffffffffffffffffffff021916908373ffffffffffffffffffffffffffffffffffffffff160217905550808273ffffffffffffffffffffffffffffffffffffffff16600073ffffffffffffffffffffffffffffffffffffffff167fddf252ad1be2c89b69c2b068fc378daa952ba7f163c4a11628f55a4df523b3ef60405160405180910390a45050565b505050565b6008805490506009600083815260200190815260200160002081905550600881908060018154018082558091505060019003906000526020600020016000909190919091505550565b6000600161227384610ea0565b61227d9190613697565b9050600060076000848152602001908152602001600020549050818114612362576000600660008673ffffffffffffffffffffffffffffffffffffffff1673ffffffffffffffffffffffffffffffffffffffff168152602001908152602001600020600084815260200190815260200160002054905080600660008773ffffffffffffffffffffffffffffffffffffffff1673ffffffffffffffffffffffffffffffffffffffff168152602001908152602001600020600084815260200190815260200160002081905550816007600083815260200190815260200160002081905550505b6007600084815260200190815260200160002060009055600660008573ffffffffffffffffffffffffffffffffffffffff1673ffffffffffffffffffffffffffffffffffffffff16815260200190815260200160002060008381526020019081526020016000206000905550505050565b600060016008805490506123e79190613697565b90506000600960008481526020019081526020016000205490506000600883815481106124175761241661319e565b5b9060005260206000200154905080600883815481106124395761243861319e565b5b906000526020600020018190555081600960008381526020019081526020016000208190555060096000858152602001908152602001600020600090556008805480612488576124876139e8565b5b6001900381819060005260206000200160009055905550505050565b60006124af83610ea0565b905081600660008573ffffffffffffffffffffffffffffffffffffffff1673ffffffffffffffffffffffffffffffffffffffff168152602001908152602001600020600083815260200190815260200160002081905550806007600084815260200190815260200160002081905550505050565b600080823b905060008111915050919050565b6000604051905090565b600080fd5b600080fd5b60007fffffffff0000000000000000000000000000000000000000000000000000000082169050919050565b61257f8161254a565b811461258a57600080fd5b50565b60008135905061259c81612576565b92915050565b6000602082840312156125b8576125b7612540565b5b60006125c68482850161258d565b91505092915050565b60008115159050919050565b6125e4816125cf565b82525050565b60006020820190506125ff60008301846125db565b92915050565b61260e816125cf565b811461261957600080fd5b50565b60008135905061262b81612605565b92915050565b60006020828403121561264757612646612540565b5b60006126558482850161261c565b91505092915050565b600081519050919050565b600082825260208201905092915050565b60005b8381101561269857808201518184015260208101905061267d565b838111156126a7576000848401525b50505050565b6000601f19601f8301169050919050565b60006126c98261265e565b6126d38185612669565b93506126e381856020860161267a565b6126ec816126ad565b840191505092915050565b6000602082019050818103600083015261271181846126be565b905092915050565b6000819050919050565b61272c81612719565b811461273757600080fd5b50565b60008135905061274981612723565b92915050565b60006020828403121561276557612764612540565b5b60006127738482850161273a565b91505092915050565b600073ffffffffffffffffffffffffffffffffffffffff82169050919050565b60006127a78261277c565b9050919050565b6127b78161279c565b82525050565b60006020820190506127d260008301846127ae565b92915050565b6127e18161279c565b81146127ec57600080fd5b50565b6000813590506127fe816127d8565b92915050565b6000806040838503121561281b5761281a612540565b5b6000612829858286016127ef565b925050602061283a8582860161273a565b9150509250929050565b61284d81612719565b82525050565b60006020820190506128686000830184612844565b92915050565b60008060006060848603121561288757612886612540565b5b6000612895868287016127ef565b93505060206128a6868287016127ef565b92505060406128b78682870161273a565b9150509250925092565b6000602082840312156128d7576128d6612540565b5b60006128e5848285016127ef565b91505092915050565b6000806040838503121561290557612904612540565b5b6000612913858286016127ef565b92505060206129248582860161261c565b9150509250929050565b600080fd5b600080fd5b7f4e487b7100000000000000000000000000000000000000000000000000000000600052604160045260246000fd5b612970826126ad565b810181811067ffffffffffffffff8211171561298f5761298e612938565b5b80604052505050565b60006129a2612536565b90506129ae8282612967565b919050565b600067ffffffffffffffff8211156129ce576129cd612938565b5b6129d7826126ad565b9050602081019050919050565b82818337600083830152505050565b6000612a06612a01846129b3565b612998565b905082815260208101848484011115612a2257612a21612933565b5b612a2d8482856129e4565b509392505050565b600082601f830112612a4a57612a4961292e565b5b8135612a5a8482602086016129f3565b91505092915050565b60008060008060808587031215612a7d57612a7c612540565b5b6000612a8b878288016127ef565b9450506020612a9c878288016127ef565b9350506040612aad8782880161273a565b925050606085013567ffffffffffffffff811115612ace57612acd612545565b5b612ada87828801612a35565b91505092959194509250565b60008060408385031215612afd57612afc612540565b5b6000612b0b858286016127ef565b9250506020612b1c858286016127ef565b9150509250929050565b7f4f776e61626c653a2063616c6c6572206973206e6f7420746865206f776e6572600082015250565b6000612b5c602083612669565b9150612b6782612b26565b602082019050919050565b60006020820190508181036000830152612b8b81612b4f565b9050919050565b7f4e487b7100000000000000000000000000000000000000000000000000000000600052602260045260246000fd5b60006002820490506001821680612bd957607f821691505b60208210811415612bed57612bec612b92565b5b50919050565b7f4552433732313a20617070726f76656420717565727920666f72206e6f6e657860008201527f697374656e7420746f6b656e0000000000000000000000000000000000000000602082015250565b6000612c4f602c83612669565b9150612c5a82612bf3565b604082019050919050565b60006020820190508181036000830152612c7e81612c42565b9050919050565b7f4552433732313a20617070726f76616c20746f2063757272656e74206f776e6560008201527f7200000000000000000000000000000000000000000000000000000000000000602082015250565b6000612ce1602183612669565b9150612cec82612c85565b604082019050919050565b60006020820190508181036000830152612d1081612cd4565b9050919050565b7f4552433732313a20617070726f76652063616c6c6572206973206e6f74206f7760008201527f6e6572206e6f7220617070726f76656420666f7220616c6c0000000000000000602082015250565b6000612d73603883612669565b9150612d7e82612d17565b604082019050919050565b60006020820190508181036000830152612da281612d66565b9050919050565b7f5265656e7472616e637947756172643a207265656e7472616e742063616c6c00600082015250565b6000612ddf601f83612669565b9150612dea82612da9565b602082019050919050565b60006020820190508181036000830152612e0e81612dd2565b9050919050565b7f4e6f206d6f7265206d696e74696e670000000000000000000000000000000000600082015250565b6000612e4b600f83612669565b9150612e5682612e15565b602082019050919050565b60006020820190508181036000830152612e7a81612e3e565b9050919050565b7f496e73756666696369656e74207061796d656e74000000000000000000000000600082015250565b6000612eb7601483612669565b9150612ec282612e81565b602082019050919050565b60006020820190508181036000830152612ee681612eaa565b9050919050565b7f4552433732313a207472616e736665722063616c6c6572206973206e6f74206f60008201527f776e6572206e6f7220617070726f766564000000000000000000000000000000602082015250565b6000612f49603183612669565b9150612f5482612eed565b604082019050919050565b60006020820190508181036000830152612f7881612f3c565b9050919050565b7f455243373231456e756d657261626c653a206f776e657220696e646578206f7560008201527f74206f6620626f756e6473000000000000000000000000000000000000000000602082015250565b6000612fdb602b83612669565b9150612fe682612f7f565b604082019050919050565b6000602082019050818103600083015261300a81612fce565b9050919050565b7f4e6f706500000000000000000000000000000000000000000000000000000000600082015250565b6000613047600483612669565b915061305282613011565b602082019050919050565b600060208201905081810360008301526130768161303a565b9050919050565b7f4e487b7100000000000000000000000000000000000000000000000000000000600052601260045260246000fd5b7f4e487b7100000000000000000000000000000000000000000000000000000000600052601160045260246000fd5b60006130e682612719565b91506130f183612719565b9250826131015761310061307d565b5b828204905092915050565b7f455243373231456e756d657261626c653a20676c6f62616c20696e646578206f60008201527f7574206f6620626f756e64730000000000000000000000000000000000000000602082015250565b6000613168602c83612669565b91506131738261310c565b604082019050919050565b600060208201905081810360008301526131978161315b565b9050919050565b7f4e487b7100000000000000000000000000000000000000000000000000000000600052603260045260246000fd5b7f4552433732313a206f776e657220717565727920666f72206e6f6e657869737460008201527f656e7420746f6b656e0000000000000000000000000000000000000000000000602082015250565b6000613229602983612669565b9150613234826131cd565b604082019050919050565b600060208201905081810360008301526132588161321c565b9050919050565b7f4552433732313a2062616c616e636520717565727920666f7220746865207a6560008201527f726f206164647265737300000000000000000000000000000000000000000000602082015250565b60006132bb602a83612669565b91506132c68261325f565b604082019050919050565b600060208201905081810360008301526132ea816132ae565b9050919050565b7f4552433732313a20617070726f766520746f2063616c6c657200000000000000600082015250565b6000613327601983612669565b9150613332826132f1565b602082019050919050565b600060208201905081810360008301526133568161331a565b9050919050565b7f4552433732314d657461646174613a2055524920717565727920666f72206e6f60008201527f6e6578697374656e7420746f6b656e0000000000000000000000000000000000602082015250565b60006133b9602f83612669565b91506133c48261335d565b604082019050919050565b600060208201905081810360008301526133e8816133ac565b9050919050565b600081905092915050565b60006134058261265e565b61340f81856133ef565b935061341f81856020860161267a565b80840191505092915050565b600061343782856133fa565b915061344382846133fa565b91508190509392505050565b7f4f776e61626c653a206e6577206f776e657220697320746865207a65726f206160008201527f6464726573730000000000000000000000000000000000000000000000000000602082015250565b60006134ab602683612669565b91506134b68261344f565b604082019050919050565b600060208201905081810360008301526134da8161349e565b9050919050565b7f4552433732313a206f70657261746f7220717565727920666f72206e6f6e657860008201527f697374656e7420746f6b656e0000000000000000000000000000000000000000602082015250565b600061353d602c83612669565b9150613548826134e1565b604082019050919050565b6000602082019050818103600083015261356c81613530565b9050919050565b7f4552433732313a207472616e73666572206f6620746f6b656e2074686174206960008201527f73206e6f74206f776e0000000000000000000000000000000000000000000000602082015250565b60006135cf602983612669565b91506135da82613573565b604082019050919050565b600060208201905081810360008301526135fe816135c2565b9050919050565b7f4552433732313a207472616e7366657220746f20746865207a65726f2061646460008201527f7265737300000000000000000000000000000000000000000000000000000000602082015250565b6000613661602483612669565b915061366c82613605565b604082019050919050565b6000602082019050818103600083015261369081613654565b9050919050565b60006136a282612719565b91506136ad83612719565b9250828210156136c0576136bf6130ac565b5b828203905092915050565b60006136d682612719565b91506136e183612719565b9250827fffffffffffffffffffffffffffffffffffffffffffffffffffffffffffffffff03821115613716576137156130ac565b5b828201905092915050565b7f4552433732313a207472616e7366657220746f206e6f6e20455243373231526560008201527f63656976657220696d706c656d656e7465720000000000000000000000000000602082015250565b600061377d603283612669565b915061378882613721565b604082019050919050565b600060208201905081810360008301526137ac81613770565b9050919050565b60006137be82612719565b91507fffffffffffffffffffffffffffffffffffffffffffffffffffffffffffffffff8214156137f1576137f06130ac565b5b600182019050919050565b600061380782612719565b915061381283612719565b9250826138225761382161307d565b5b828206905092915050565b600081519050919050565b600082825260208201905092915050565b60006138548261382d565b61385e8185613838565b935061386e81856020860161267a565b613877816126ad565b840191505092915050565b600060808201905061389760008301876127ae565b6138a460208301866127ae565b6138b16040830185612844565b81810360608301526138c38184613849565b905095945050505050565b6000815190506138dd81612576565b92915050565b6000602082840312156138f9576138f8612540565b5b6000613907848285016138ce565b91505092915050565b7f4552433732313a206d696e7420746f20746865207a65726f2061646472657373600082015250565b6000613946602083612669565b915061395182613910565b602082019050919050565b6000602082019050818103600083015261397581613939565b9050919050565b7f4552433732313a20746f6b656e20616c7265616479206d696e74656400000000600082015250565b60006139b2601c83612669565b91506139bd8261397c565b602082019050919050565b600060208201905081810360008301526139e1816139a5565b9050919050565b7f4e487b7100000000000000000000000000000000000000000000000000000000600052603160045260246000fdfe68747470733a2f2f63727970746f63616b657a2e76657263656c2e6170702f6170692f6e66742fa264697066735822122059f1c462d05dae9877d3b40cd18b52acefac0e4b7a806ace0516f55c2db5b56464736f6c63430008090033",
  "linkReferences": {},
  "deployedLinkReferences": {}
}