{
  "_format": "hh-sol-artifact-1",
  "contractName": "CryptoCakez",
  "sourceName": "contracts/CryptoCakez.sol",
  "abi": [
    {
      "inputs": [],
      "stateMutability": "nonpayable",
      "type": "constructor"
    },
    {
      "anonymous": false,
      "inputs": [
        {
          "indexed": true,
          "internalType": "address",
          "name": "owner",
          "type": "address"
        },
        {
          "indexed": true,
          "internalType": "address",
          "name": "approved",
          "type": "address"
        },
        {
          "indexed": true,
          "internalType": "uint256",
          "name": "tokenId",
          "type": "uint256"
        }
      ],
      "name": "Approval",
      "type": "event"
    },
    {
      "anonymous": false,
      "inputs": [
        {
          "indexed": true,
          "internalType": "address",
          "name": "owner",
          "type": "address"
        },
        {
          "indexed": true,
          "internalType": "address",
          "name": "operator",
          "type": "address"
        },
        {
          "indexed": false,
          "internalType": "bool",
          "name": "approved",
          "type": "bool"
        }
      ],
      "name": "ApprovalForAll",
      "type": "event"
    },
    {
      "anonymous": false,
      "inputs": [
        {
          "indexed": true,
          "internalType": "address",
          "name": "previousOwner",
          "type": "address"
        },
        {
          "indexed": true,
          "internalType": "address",
          "name": "newOwner",
          "type": "address"
        }
      ],
      "name": "OwnershipTransferred",
      "type": "event"
    },
    {
      "anonymous": false,
      "inputs": [
        {
          "indexed": true,
          "internalType": "address",
          "name": "from",
          "type": "address"
        },
        {
          "indexed": true,
          "internalType": "address",
          "name": "to",
          "type": "address"
        },
        {
          "indexed": true,
          "internalType": "uint256",
          "name": "tokenId",
          "type": "uint256"
        }
      ],
      "name": "Transfer",
      "type": "event"
    },
    {
      "inputs": [],
      "name": "MAX_SUPPLY",
      "outputs": [
        {
          "internalType": "uint256",
          "name": "",
          "type": "uint256"
        }
      ],
      "stateMutability": "view",
      "type": "function"
    },
    {
      "inputs": [],
      "name": "PRICE",
      "outputs": [
        {
          "internalType": "uint256",
          "name": "",
          "type": "uint256"
        }
      ],
      "stateMutability": "view",
      "type": "function"
    },
    {
      "inputs": [
        {
          "internalType": "address",
          "name": "to",
          "type": "address"
        },
        {
          "internalType": "uint256",
          "name": "tokenId",
          "type": "uint256"
        }
      ],
      "name": "approve",
      "outputs": [],
      "stateMutability": "nonpayable",
      "type": "function"
    },
    {
      "inputs": [
        {
          "internalType": "address",
          "name": "owner",
          "type": "address"
        }
      ],
      "name": "balanceOf",
      "outputs": [
        {
          "internalType": "uint256",
          "name": "",
          "type": "uint256"
        }
      ],
      "stateMutability": "view",
      "type": "function"
    },
    {
      "inputs": [
        {
          "internalType": "uint256",
          "name": "tokenId",
          "type": "uint256"
        }
      ],
      "name": "getApproved",
      "outputs": [
        {
          "internalType": "address",
          "name": "",
          "type": "address"
        }
      ],
      "stateMutability": "view",
      "type": "function"
    },
    {
      "inputs": [
        {
          "internalType": "address",
          "name": "owner",
          "type": "address"
        },
        {
          "internalType": "address",
          "name": "operator",
          "type": "address"
        }
      ],
      "name": "isApprovedForAll",
      "outputs": [
        {
          "internalType": "bool",
          "name": "",
          "type": "bool"
        }
      ],
      "stateMutability": "view",
      "type": "function"
    },
    {
      "inputs": [],
      "name": "mint",
      "outputs": [],
      "stateMutability": "payable",
      "type": "function"
    },
    {
      "inputs": [],
      "name": "name",
      "outputs": [
        {
          "internalType": "string",
          "name": "",
          "type": "string"
        }
      ],
      "stateMutability": "view",
      "type": "function"
    },
    {
      "inputs": [],
      "name": "owner",
      "outputs": [
        {
          "internalType": "address",
          "name": "",
          "type": "address"
        }
      ],
      "stateMutability": "view",
      "type": "function"
    },
    {
      "inputs": [
        {
          "internalType": "uint256",
          "name": "tokenId",
          "type": "uint256"
        }
      ],
      "name": "ownerOf",
      "outputs": [
        {
          "internalType": "address",
          "name": "",
          "type": "address"
        }
      ],
      "stateMutability": "view",
      "type": "function"
    },
    {
      "inputs": [],
      "name": "renounceOwnership",
      "outputs": [],
      "stateMutability": "nonpayable",
      "type": "function"
    },
    {
      "inputs": [
        {
          "internalType": "address",
          "name": "from",
          "type": "address"
        },
        {
          "internalType": "address",
          "name": "to",
          "type": "address"
        },
        {
          "internalType": "uint256",
          "name": "tokenId",
          "type": "uint256"
        }
      ],
      "name": "safeTransferFrom",
      "outputs": [],
      "stateMutability": "nonpayable",
      "type": "function"
    },
    {
      "inputs": [
        {
          "internalType": "address",
          "name": "from",
          "type": "address"
        },
        {
          "internalType": "address",
          "name": "to",
          "type": "address"
        },
        {
          "internalType": "uint256",
          "name": "tokenId",
          "type": "uint256"
        },
        {
          "internalType": "bytes",
          "name": "_data",
          "type": "bytes"
        }
      ],
      "name": "safeTransferFrom",
      "outputs": [],
      "stateMutability": "nonpayable",
      "type": "function"
    },
    {
      "inputs": [
        {
          "internalType": "address",
          "name": "operator",
          "type": "address"
        },
        {
          "internalType": "bool",
          "name": "approved",
          "type": "bool"
        }
      ],
      "name": "setApprovalForAll",
      "outputs": [],
      "stateMutability": "nonpayable",
      "type": "function"
    },
    {
      "inputs": [
        {
          "internalType": "bytes4",
          "name": "interfaceId",
          "type": "bytes4"
        }
      ],
      "name": "supportsInterface",
      "outputs": [
        {
          "internalType": "bool",
          "name": "",
          "type": "bool"
        }
      ],
      "stateMutability": "view",
      "type": "function"
    },
    {
      "inputs": [],
      "name": "symbol",
      "outputs": [
        {
          "internalType": "string",
          "name": "",
          "type": "string"
        }
      ],
      "stateMutability": "view",
      "type": "function"
    },
    {
      "inputs": [
        {
          "internalType": "uint256",
          "name": "index",
          "type": "uint256"
        }
      ],
      "name": "tokenByIndex",
      "outputs": [
        {
          "internalType": "uint256",
          "name": "",
          "type": "uint256"
        }
      ],
      "stateMutability": "view",
      "type": "function"
    },
    {
      "inputs": [
        {
          "internalType": "address",
          "name": "owner",
          "type": "address"
        },
        {
          "internalType": "uint256",
          "name": "index",
          "type": "uint256"
        }
      ],
      "name": "tokenOfOwnerByIndex",
      "outputs": [
        {
          "internalType": "uint256",
          "name": "",
          "type": "uint256"
        }
      ],
      "stateMutability": "view",
      "type": "function"
    },
    {
      "inputs": [
        {
          "internalType": "uint256",
          "name": "tokenId",
          "type": "uint256"
        }
      ],
      "name": "tokenURI",
      "outputs": [
        {
          "internalType": "string",
          "name": "",
          "type": "string"
        }
      ],
      "stateMutability": "view",
      "type": "function"
    },
    {
      "inputs": [],
      "name": "totalSupply",
      "outputs": [
        {
          "internalType": "uint256",
          "name": "",
          "type": "uint256"
        }
      ],
      "stateMutability": "view",
      "type": "function"
    },
    {
      "inputs": [
        {
          "internalType": "address",
          "name": "from",
          "type": "address"
        },
        {
          "internalType": "address",
          "name": "to",
          "type": "address"
        },
        {
          "internalType": "uint256",
          "name": "tokenId",
          "type": "uint256"
        }
      ],
      "name": "transferFrom",
      "outputs": [],
      "stateMutability": "nonpayable",
      "type": "function"
    },
    {
      "inputs": [
        {
          "internalType": "address",
          "name": "newOwner",
          "type": "address"
        }
      ],
      "name": "transferOwnership",
      "outputs": [],
      "stateMutability": "nonpayable",
      "type": "function"
    },
    {
      "inputs": [],
      "name": "withdraw",
      "outputs": [],
      "stateMutability": "nonpayable",
      "type": "function"
    }
  ],
  "bytecode": "0x60806040523480156200001157600080fd5b506040518060400160405280600b81526020017f43727970746f43616b657a0000000000000000000000000000000000000000008152506040518060400160405280600581526020017f43414b455a000000000000000000000000000000000000000000000000000000815250816000908051906020019062000096929190620001ae565b508060019080519060200190620000af929190620001ae565b5050506001600a81905550620000da620000ce620000e060201b60201c565b620000e860201b60201c565b620002c3565b600033905090565b6000600b60009054906101000a900473ffffffffffffffffffffffffffffffffffffffff16905081600b60006101000a81548173ffffffffffffffffffffffffffffffffffffffff021916908373ffffffffffffffffffffffffffffffffffffffff1602179055508173ffffffffffffffffffffffffffffffffffffffff168173ffffffffffffffffffffffffffffffffffffffff167f8be0079c531659141344cd1fd0a4f28419497f9722a3daafe3b4186f6b6457e060405160405180910390a35050565b828054620001bc906200028d565b90600052602060002090601f016020900481019282620001e057600085556200022c565b82601f10620001fb57805160ff19168380011785556200022c565b828001600101855582156200022c579182015b828111156200022b5782518255916020019190600101906200020e565b5b5090506200023b91906200023f565b5090565b5b808211156200025a57600081600090555060010162000240565b5090565b7f4e487b7100000000000000000000000000000000000000000000000000000000600052602260045260246000fd5b60006002820490506001821680620002a657607f821691505b60208210811415620002bd57620002bc6200025e565b5b50919050565b61392080620002d36000396000f3fe6080604052600436106101405760003560e01c80634f6ccce7116100b657806395d89b411161006f57806395d89b411461043d578063a22cb46514610468578063b88d4fde14610491578063c87b56dd146104ba578063e985e9c5146104f7578063f2fde38b1461053457610140565b80634f6ccce7146103195780636352211e1461035657806370a0823114610393578063715018a6146103d05780638d859f3e146103e75780638da5cb5b1461041257610140565b806318160ddd1161010857806318160ddd1461021d57806323b872dd146102485780632f745c591461027157806332cb6b0c146102ae5780633ccfd60b146102d957806342842e0e146102f057610140565b806301ffc9a71461014557806306fdde0314610182578063081812fc146101ad578063095ea7b3146101ea5780631249c58b14610213575b600080fd5b34801561015157600080fd5b5061016c6004803603810190610167919061247b565b61055d565b60405161017991906124c3565b60405180910390f35b34801561018e57600080fd5b506101976105d7565b6040516101a49190612577565b60405180910390f35b3480156101b957600080fd5b506101d460048036038101906101cf91906125cf565b610669565b6040516101e1919061263d565b60405180910390f35b3480156101f657600080fd5b50610211600480360381019061020c9190612684565b6106ee565b005b61021b610806565b005b34801561022957600080fd5b5061023261090a565b60405161023f91906126d3565b60405180910390f35b34801561025457600080fd5b5061026f600480360381019061026a91906126ee565b610917565b005b34801561027d57600080fd5b5061029860048036038101906102939190612684565b610977565b6040516102a591906126d3565b60405180910390f35b3480156102ba57600080fd5b506102c3610a1c565b6040516102d091906126d3565b60405180910390f35b3480156102e557600080fd5b506102ee610a22565b005b3480156102fc57600080fd5b50610317600480360381019061031291906126ee565b610c49565b005b34801561032557600080fd5b50610340600480360381019061033b91906125cf565b610c69565b60405161034d91906126d3565b60405180910390f35b34801561036257600080fd5b5061037d600480360381019061037891906125cf565b610cda565b60405161038a919061263d565b60405180910390f35b34801561039f57600080fd5b506103ba60048036038101906103b59190612741565b610d8c565b6040516103c791906126d3565b60405180910390f35b3480156103dc57600080fd5b506103e5610e44565b005b3480156103f357600080fd5b506103fc610ecc565b60405161040991906126d3565b60405180910390f35b34801561041e57600080fd5b50610427610ed7565b604051610434919061263d565b60405180910390f35b34801561044957600080fd5b50610452610f01565b60405161045f9190612577565b60405180910390f35b34801561047457600080fd5b5061048f600480360381019061048a919061279a565b610f93565b005b34801561049d57600080fd5b506104b860048036038101906104b3919061290f565b611114565b005b3480156104c657600080fd5b506104e160048036038101906104dc91906125cf565b611176565b6040516104ee9190612577565b60405180910390f35b34801561050357600080fd5b5061051e60048036038101906105199190612992565b61121d565b60405161052b91906124c3565b60405180910390f35b34801561054057600080fd5b5061055b60048036038101906105569190612741565b6112b1565b005b60007f780e9d63000000000000000000000000000000000000000000000000000000007bffffffffffffffffffffffffffffffffffffffffffffffffffffffff1916827bffffffffffffffffffffffffffffffffffffffffffffffffffffffff191614806105d057506105cf826113a9565b5b9050919050565b6060600080546105e690612a01565b80601f016020809104026020016040519081016040528092919081815260200182805461061290612a01565b801561065f5780601f106106345761010080835404028352916020019161065f565b820191906000526020600020905b81548152906001019060200180831161064257829003601f168201915b5050505050905090565b60006106748261148b565b6106b3576040517f08c379a00000000000000000000000000000000000000000000000000000000081526004016106aa90612aa5565b60405180910390fd5b6004600083815260200190815260200160002060009054906101000a900473ffffffffffffffffffffffffffffffffffffffff169050919050565b60006106f982610cda565b90508073ffffffffffffffffffffffffffffffffffffffff168373ffffffffffffffffffffffffffffffffffffffff16141561076a576040517f08c379a000000000000000000000000000000000000000000000000000000000815260040161076190612b37565b60405180910390fd5b8073ffffffffffffffffffffffffffffffffffffffff166107896114f7565b73ffffffffffffffffffffffffffffffffffffffff1614806107b857506107b7816107b26114f7565b61121d565b5b6107f7576040517f08c379a00000000000000000000000000000000000000000000000000000000081526004016107ee90612bc9565b60405180910390fd5b61080183836114ff565b505050565b6002600a54141561084c576040517f08c379a000000000000000000000000000000000000000000000000000000000815260040161084390612c35565b60405180910390fd5b6002600a819055506107d061085f61090a565b1061089f576040517f08c379a000000000000000000000000000000000000000000000000000000000815260040161089690612ca1565b60405180910390fd5b66470de4df82000034146108e8576040517f08c379a00000000000000000000000000000000000000000000000000000000081526004016108df90612d0d565b60405180910390fd5b6109006108f36114f7565b6108fb61090a565b6115b8565b6001600a81905550565b6000600880549050905090565b6109286109226114f7565b826115d6565b610967576040517f08c379a000000000000000000000000000000000000000000000000000000000815260040161095e90612d9f565b60405180910390fd5b6109728383836116b4565b505050565b600061098283610d8c565b82106109c3576040517f08c379a00000000000000000000000000000000000000000000000000000000081526004016109ba90612e31565b60405180910390fd5b600660008473ffffffffffffffffffffffffffffffffffffffff1673ffffffffffffffffffffffffffffffffffffffff168152602001908152602001600020600083815260200190815260200160002054905092915050565b6107d081565b6000610a2c610ed7565b73ffffffffffffffffffffffffffffffffffffffff163373ffffffffffffffffffffffffffffffffffffffff161480610aa4575073febe5d9d639e76c9cc1f4184453ba39b07fe672e73ffffffffffffffffffffffffffffffffffffffff163373ffffffffffffffffffffffffffffffffffffffff16145b80610aee575073f6f1cb7eba1bc24a4c7a9fd6f1e066a1f53cd9e273ffffffffffffffffffffffffffffffffffffffff163373ffffffffffffffffffffffffffffffffffffffff16145b905080610b30576040517f08c379a0000000000000000000000000000000000000000000000000000000008152600401610b2790612e9d565b60405180910390fd5b6000600347610b3f9190612f1b565b9050610b49610ed7565b73ffffffffffffffffffffffffffffffffffffffff166108fc829081150290604051600060405180830381858888f19350505050158015610b8e573d6000803e3d6000fd5b5073febe5d9d639e76c9cc1f4184453ba39b07fe672e73ffffffffffffffffffffffffffffffffffffffff166108fc829081150290604051600060405180830381858888f19350505050158015610be9573d6000803e3d6000fd5b5073f6f1cb7eba1bc24a4c7a9fd6f1e066a1f53cd9e273ffffffffffffffffffffffffffffffffffffffff166108fc829081150290604051600060405180830381858888f19350505050158015610c44573d6000803e3d6000fd5b505050565b610c6483838360405180602001604052806000815250611114565b505050565b6000610c7361090a565b8210610cb4576040517f08c379a0000000000000000000000000000000000000000000000000000000008152600401610cab90612fbe565b60405180910390fd5b60088281548110610cc857610cc7612fde565b5b90600052602060002001549050919050565b6000806002600084815260200190815260200160002060009054906101000a900473ffffffffffffffffffffffffffffffffffffffff169050600073ffffffffffffffffffffffffffffffffffffffff168173ffffffffffffffffffffffffffffffffffffffff161415610d83576040517f08c379a0000000000000000000000000000000000000000000000000000000008152600401610d7a9061307f565b60405180910390fd5b80915050919050565b60008073ffffffffffffffffffffffffffffffffffffffff168273ffffffffffffffffffffffffffffffffffffffff161415610dfd576040517f08c379a0000000000000000000000000000000000000000000000000000000008152600401610df490613111565b60405180910390fd5b600360008373ffffffffffffffffffffffffffffffffffffffff1673ffffffffffffffffffffffffffffffffffffffff168152602001908152602001600020549050919050565b610e4c6114f7565b73ffffffffffffffffffffffffffffffffffffffff16610e6a610ed7565b73ffffffffffffffffffffffffffffffffffffffff1614610ec0576040517f08c379a0000000000000000000000000000000000000000000000000000000008152600401610eb79061317d565b60405180910390fd5b610eca6000611910565b565b66470de4df82000081565b6000600b60009054906101000a900473ffffffffffffffffffffffffffffffffffffffff16905090565b606060018054610f1090612a01565b80601f0160208091040260200160405190810160405280929190818152602001828054610f3c90612a01565b8015610f895780601f10610f5e57610100808354040283529160200191610f89565b820191906000526020600020905b815481529060010190602001808311610f6c57829003601f168201915b5050505050905090565b610f9b6114f7565b73ffffffffffffffffffffffffffffffffffffffff168273ffffffffffffffffffffffffffffffffffffffff161415611009576040517f08c379a0000000000000000000000000000000000000000000000000000000008152600401611000906131e9565b60405180910390fd5b80600560006110166114f7565b73ffffffffffffffffffffffffffffffffffffffff1673ffffffffffffffffffffffffffffffffffffffff16815260200190815260200160002060008473ffffffffffffffffffffffffffffffffffffffff1673ffffffffffffffffffffffffffffffffffffffff16815260200190815260200160002060006101000a81548160ff0219169083151502179055508173ffffffffffffffffffffffffffffffffffffffff166110c36114f7565b73ffffffffffffffffffffffffffffffffffffffff167f17307eab39ab6107e8899845ad3d59bd9653f200f220920489ca2b5937696c318360405161110891906124c3565b60405180910390a35050565b61112561111f6114f7565b836115d6565b611164576040517f08c379a000000000000000000000000000000000000000000000000000000000815260040161115b90612d9f565b60405180910390fd5b611170848484846119d6565b50505050565b60606111818261148b565b6111c0576040517f08c379a00000000000000000000000000000000000000000000000000000000081526004016111b79061327b565b60405180910390fd5b60006111ca611a32565b905060008151116111ea5760405180602001604052806000815250611215565b806111f484611a52565b6040516020016112059291906132d7565b6040516020818303038152906040525b915050919050565b6000600560008473ffffffffffffffffffffffffffffffffffffffff1673ffffffffffffffffffffffffffffffffffffffff16815260200190815260200160002060008373ffffffffffffffffffffffffffffffffffffffff1673ffffffffffffffffffffffffffffffffffffffff16815260200190815260200160002060009054906101000a900460ff16905092915050565b6112b96114f7565b73ffffffffffffffffffffffffffffffffffffffff166112d7610ed7565b73ffffffffffffffffffffffffffffffffffffffff161461132d576040517f08c379a00000000000000000000000000000000000000000000000000000000081526004016113249061317d565b60405180910390fd5b600073ffffffffffffffffffffffffffffffffffffffff168173ffffffffffffffffffffffffffffffffffffffff16141561139d576040517f08c379a00000000000000000000000000000000000000000000000000000000081526004016113949061336d565b60405180910390fd5b6113a681611910565b50565b60007f80ac58cd000000000000000000000000000000000000000000000000000000007bffffffffffffffffffffffffffffffffffffffffffffffffffffffff1916827bffffffffffffffffffffffffffffffffffffffffffffffffffffffff1916148061147457507f5b5e139f000000000000000000000000000000000000000000000000000000007bffffffffffffffffffffffffffffffffffffffffffffffffffffffff1916827bffffffffffffffffffffffffffffffffffffffffffffffffffffffff1916145b80611484575061148382611bb3565b5b9050919050565b60008073ffffffffffffffffffffffffffffffffffffffff166002600084815260200190815260200160002060009054906101000a900473ffffffffffffffffffffffffffffffffffffffff1673ffffffffffffffffffffffffffffffffffffffff1614159050919050565b600033905090565b816004600083815260200190815260200160002060006101000a81548173ffffffffffffffffffffffffffffffffffffffff021916908373ffffffffffffffffffffffffffffffffffffffff160217905550808273ffffffffffffffffffffffffffffffffffffffff1661157283610cda565b73ffffffffffffffffffffffffffffffffffffffff167f8c5be1e5ebec7d5bd14f71427d1e84f3dd0314c0f7b2291e5b200ac8c7c3b92560405160405180910390a45050565b6115d2828260405180602001604052806000815250611c1d565b5050565b60006115e18261148b565b611620576040517f08c379a0000000000000000000000000000000000000000000000000000000008152600401611617906133ff565b60405180910390fd5b600061162b83610cda565b90508073ffffffffffffffffffffffffffffffffffffffff168473ffffffffffffffffffffffffffffffffffffffff16148061169a57508373ffffffffffffffffffffffffffffffffffffffff1661168284610669565b73ffffffffffffffffffffffffffffffffffffffff16145b806116ab57506116aa818561121d565b5b91505092915050565b8273ffffffffffffffffffffffffffffffffffffffff166116d482610cda565b73ffffffffffffffffffffffffffffffffffffffff161461172a576040517f08c379a000000000000000000000000000000000000000000000000000000000815260040161172190613491565b60405180910390fd5b600073ffffffffffffffffffffffffffffffffffffffff168273ffffffffffffffffffffffffffffffffffffffff16141561179a576040517f08c379a000000000000000000000000000000000000000000000000000000000815260040161179190613523565b60405180910390fd5b6117a5838383611c78565b6117b06000826114ff565b6001600360008573ffffffffffffffffffffffffffffffffffffffff1673ffffffffffffffffffffffffffffffffffffffff16815260200190815260200160002060008282546118009190613543565b925050819055506001600360008473ffffffffffffffffffffffffffffffffffffffff1673ffffffffffffffffffffffffffffffffffffffff16815260200190815260200160002060008282546118579190613577565b92505081905550816002600083815260200190815260200160002060006101000a81548173ffffffffffffffffffffffffffffffffffffffff021916908373ffffffffffffffffffffffffffffffffffffffff160217905550808273ffffffffffffffffffffffffffffffffffffffff168473ffffffffffffffffffffffffffffffffffffffff167fddf252ad1be2c89b69c2b068fc378daa952ba7f163c4a11628f55a4df523b3ef60405160405180910390a4505050565b6000600b60009054906101000a900473ffffffffffffffffffffffffffffffffffffffff16905081600b60006101000a81548173ffffffffffffffffffffffffffffffffffffffff021916908373ffffffffffffffffffffffffffffffffffffffff1602179055508173ffffffffffffffffffffffffffffffffffffffff168173ffffffffffffffffffffffffffffffffffffffff167f8be0079c531659141344cd1fd0a4f28419497f9722a3daafe3b4186f6b6457e060405160405180910390a35050565b6119e18484846116b4565b6119ed84848484611d8c565b611a2c576040517f08c379a0000000000000000000000000000000000000000000000000000000008152600401611a239061363f565b60405180910390fd5b50505050565b60606040518060600160405280602781526020016138c460279139905090565b60606000821415611a9a576040518060400160405280600181526020017f30000000000000000000000000000000000000000000000000000000000000008152509050611bae565b600082905060005b60008214611acc578080611ab59061365f565b915050600a82611ac59190612f1b565b9150611aa2565b60008167ffffffffffffffff811115611ae857611ae76127e4565b5b6040519080825280601f01601f191660200182016040528015611b1a5781602001600182028036833780820191505090505b5090505b60008514611ba757600182611b339190613543565b9150600a85611b4291906136a8565b6030611b4e9190613577565b60f81b818381518110611b6457611b63612fde565b5b60200101907effffffffffffffffffffffffffffffffffffffffffffffffffffffffffffff1916908160001a905350600a85611ba09190612f1b565b9450611b1e565b8093505050505b919050565b60007f01ffc9a7000000000000000000000000000000000000000000000000000000007bffffffffffffffffffffffffffffffffffffffffffffffffffffffff1916827bffffffffffffffffffffffffffffffffffffffffffffffffffffffff1916149050919050565b611c278383611f23565b611c346000848484611d8c565b611c73576040517f08c379a0000000000000000000000000000000000000000000000000000000008152600401611c6a9061363f565b60405180910390fd5b505050565b611c838383836120f1565b600073ffffffffffffffffffffffffffffffffffffffff168373ffffffffffffffffffffffffffffffffffffffff161415611cc657611cc1816120f6565b611d05565b8173ffffffffffffffffffffffffffffffffffffffff168373ffffffffffffffffffffffffffffffffffffffff1614611d0457611d03838261213f565b5b5b600073ffffffffffffffffffffffffffffffffffffffff168273ffffffffffffffffffffffffffffffffffffffff161415611d4857611d43816122ac565b611d87565b8273ffffffffffffffffffffffffffffffffffffffff168273ffffffffffffffffffffffffffffffffffffffff1614611d8657611d85828261237d565b5b5b505050565b6000611dad8473ffffffffffffffffffffffffffffffffffffffff166123fc565b15611f16578373ffffffffffffffffffffffffffffffffffffffff1663150b7a02611dd66114f7565b8786866040518563ffffffff1660e01b8152600401611df8949392919061372e565b602060405180830381600087803b158015611e1257600080fd5b505af1925050508015611e4357506040513d601f19601f82011682018060405250810190611e40919061378f565b60015b611ec6573d8060008114611e73576040519150601f19603f3d011682016040523d82523d6000602084013e611e78565b606091505b50600081511415611ebe576040517f08c379a0000000000000000000000000000000000000000000000000000000008152600401611eb59061363f565b60405180910390fd5b805181602001fd5b63150b7a0260e01b7bffffffffffffffffffffffffffffffffffffffffffffffffffffffff1916817bffffffffffffffffffffffffffffffffffffffffffffffffffffffff191614915050611f1b565b600190505b949350505050565b600073ffffffffffffffffffffffffffffffffffffffff168273ffffffffffffffffffffffffffffffffffffffff161415611f93576040517f08c379a0000000000000000000000000000000000000000000000000000000008152600401611f8a90613808565b60405180910390fd5b611f9c8161148b565b15611fdc576040517f08c379a0000000000000000000000000000000000000000000000000000000008152600401611fd390613874565b60405180910390fd5b611fe860008383611c78565b6001600360008473ffffffffffffffffffffffffffffffffffffffff1673ffffffffffffffffffffffffffffffffffffffff16815260200190815260200160002060008282546120389190613577565b92505081905550816002600083815260200190815260200160002060006101000a81548173ffffffffffffffffffffffffffffffffffffffff021916908373ffffffffffffffffffffffffffffffffffffffff160217905550808273ffffffffffffffffffffffffffffffffffffffff16600073ffffffffffffffffffffffffffffffffffffffff167fddf252ad1be2c89b69c2b068fc378daa952ba7f163c4a11628f55a4df523b3ef60405160405180910390a45050565b505050565b6008805490506009600083815260200190815260200160002081905550600881908060018154018082558091505060019003906000526020600020016000909190919091505550565b6000600161214c84610d8c565b6121569190613543565b905060006007600084815260200190815260200160002054905081811461223b576000600660008673ffffffffffffffffffffffffffffffffffffffff1673ffffffffffffffffffffffffffffffffffffffff168152602001908152602001600020600084815260200190815260200160002054905080600660008773ffffffffffffffffffffffffffffffffffffffff1673ffffffffffffffffffffffffffffffffffffffff168152602001908152602001600020600084815260200190815260200160002081905550816007600083815260200190815260200160002081905550505b6007600084815260200190815260200160002060009055600660008573ffffffffffffffffffffffffffffffffffffffff1673ffffffffffffffffffffffffffffffffffffffff16815260200190815260200160002060008381526020019081526020016000206000905550505050565b600060016008805490506122c09190613543565b90506000600960008481526020019081526020016000205490506000600883815481106122f0576122ef612fde565b5b90600052602060002001549050806008838154811061231257612311612fde565b5b90600052602060002001819055508160096000838152602001908152602001600020819055506009600085815260200190815260200160002060009055600880548061236157612360613894565b5b6001900381819060005260206000200160009055905550505050565b600061238883610d8c565b905081600660008573ffffffffffffffffffffffffffffffffffffffff1673ffffffffffffffffffffffffffffffffffffffff168152602001908152602001600020600083815260200190815260200160002081905550806007600084815260200190815260200160002081905550505050565b600080823b905060008111915050919050565b6000604051905090565b600080fd5b600080fd5b60007fffffffff0000000000000000000000000000000000000000000000000000000082169050919050565b61245881612423565b811461246357600080fd5b50565b6000813590506124758161244f565b92915050565b60006020828403121561249157612490612419565b5b600061249f84828501612466565b91505092915050565b60008115159050919050565b6124bd816124a8565b82525050565b60006020820190506124d860008301846124b4565b92915050565b600081519050919050565b600082825260208201905092915050565b60005b838110156125185780820151818401526020810190506124fd565b83811115612527576000848401525b50505050565b6000601f19601f8301169050919050565b6000612549826124de565b61255381856124e9565b93506125638185602086016124fa565b61256c8161252d565b840191505092915050565b60006020820190508181036000830152612591818461253e565b905092915050565b6000819050919050565b6125ac81612599565b81146125b757600080fd5b50565b6000813590506125c9816125a3565b92915050565b6000602082840312156125e5576125e4612419565b5b60006125f3848285016125ba565b91505092915050565b600073ffffffffffffffffffffffffffffffffffffffff82169050919050565b6000612627826125fc565b9050919050565b6126378161261c565b82525050565b6000602082019050612652600083018461262e565b92915050565b6126618161261c565b811461266c57600080fd5b50565b60008135905061267e81612658565b92915050565b6000806040838503121561269b5761269a612419565b5b60006126a98582860161266f565b92505060206126ba858286016125ba565b9150509250929050565b6126cd81612599565b82525050565b60006020820190506126e860008301846126c4565b92915050565b60008060006060848603121561270757612706612419565b5b60006127158682870161266f565b93505060206127268682870161266f565b9250506040612737868287016125ba565b9150509250925092565b60006020828403121561275757612756612419565b5b60006127658482850161266f565b91505092915050565b612777816124a8565b811461278257600080fd5b50565b6000813590506127948161276e565b92915050565b600080604083850312156127b1576127b0612419565b5b60006127bf8582860161266f565b92505060206127d085828601612785565b9150509250929050565b600080fd5b600080fd5b7f4e487b7100000000000000000000000000000000000000000000000000000000600052604160045260246000fd5b61281c8261252d565b810181811067ffffffffffffffff8211171561283b5761283a6127e4565b5b80604052505050565b600061284e61240f565b905061285a8282612813565b919050565b600067ffffffffffffffff82111561287a576128796127e4565b5b6128838261252d565b9050602081019050919050565b82818337600083830152505050565b60006128b26128ad8461285f565b612844565b9050828152602081018484840111156128ce576128cd6127df565b5b6128d9848285612890565b509392505050565b600082601f8301126128f6576128f56127da565b5b813561290684826020860161289f565b91505092915050565b6000806000806080858703121561292957612928612419565b5b60006129378782880161266f565b94505060206129488782880161266f565b9350506040612959878288016125ba565b925050606085013567ffffffffffffffff81111561297a5761297961241e565b5b612986878288016128e1565b91505092959194509250565b600080604083850312156129a9576129a8612419565b5b60006129b78582860161266f565b92505060206129c88582860161266f565b9150509250929050565b7f4e487b7100000000000000000000000000000000000000000000000000000000600052602260045260246000fd5b60006002820490506001821680612a1957607f821691505b60208210811415612a2d57612a2c6129d2565b5b50919050565b7f4552433732313a20617070726f76656420717565727920666f72206e6f6e657860008201527f697374656e7420746f6b656e0000000000000000000000000000000000000000602082015250565b6000612a8f602c836124e9565b9150612a9a82612a33565b604082019050919050565b60006020820190508181036000830152612abe81612a82565b9050919050565b7f4552433732313a20617070726f76616c20746f2063757272656e74206f776e6560008201527f7200000000000000000000000000000000000000000000000000000000000000602082015250565b6000612b216021836124e9565b9150612b2c82612ac5565b604082019050919050565b60006020820190508181036000830152612b5081612b14565b9050919050565b7f4552433732313a20617070726f76652063616c6c6572206973206e6f74206f7760008201527f6e6572206e6f7220617070726f76656420666f7220616c6c0000000000000000602082015250565b6000612bb36038836124e9565b9150612bbe82612b57565b604082019050919050565b60006020820190508181036000830152612be281612ba6565b9050919050565b7f5265656e7472616e637947756172643a207265656e7472616e742063616c6c00600082015250565b6000612c1f601f836124e9565b9150612c2a82612be9565b602082019050919050565b60006020820190508181036000830152612c4e81612c12565b9050919050565b7f4e6f206d6f7265206d696e74696e670000000000000000000000000000000000600082015250565b6000612c8b600f836124e9565b9150612c9682612c55565b602082019050919050565b60006020820190508181036000830152612cba81612c7e565b9050919050565b7f496e636f7272656374204554482076616c756500000000000000000000000000600082015250565b6000612cf76013836124e9565b9150612d0282612cc1565b602082019050919050565b60006020820190508181036000830152612d2681612cea565b9050919050565b7f4552433732313a207472616e736665722063616c6c6572206973206e6f74206f60008201527f776e6572206e6f7220617070726f766564000000000000000000000000000000602082015250565b6000612d896031836124e9565b9150612d9482612d2d565b604082019050919050565b60006020820190508181036000830152612db881612d7c565b9050919050565b7f455243373231456e756d657261626c653a206f776e657220696e646578206f7560008201527f74206f6620626f756e6473000000000000000000000000000000000000000000602082015250565b6000612e1b602b836124e9565b9150612e2682612dbf565b604082019050919050565b60006020820190508181036000830152612e4a81612e0e565b9050919050565b7f4e6f706500000000000000000000000000000000000000000000000000000000600082015250565b6000612e876004836124e9565b9150612e9282612e51565b602082019050919050565b60006020820190508181036000830152612eb681612e7a565b9050919050565b7f4e487b7100000000000000000000000000000000000000000000000000000000600052601260045260246000fd5b7f4e487b7100000000000000000000000000000000000000000000000000000000600052601160045260246000fd5b6000612f2682612599565b9150612f3183612599565b925082612f4157612f40612ebd565b5b828204905092915050565b7f455243373231456e756d657261626c653a20676c6f62616c20696e646578206f60008201527f7574206f6620626f756e64730000000000000000000000000000000000000000602082015250565b6000612fa8602c836124e9565b9150612fb382612f4c565b604082019050919050565b60006020820190508181036000830152612fd781612f9b565b9050919050565b7f4e487b7100000000000000000000000000000000000000000000000000000000600052603260045260246000fd5b7f4552433732313a206f776e657220717565727920666f72206e6f6e657869737460008201527f656e7420746f6b656e0000000000000000000000000000000000000000000000602082015250565b60006130696029836124e9565b91506130748261300d565b604082019050919050565b600060208201905081810360008301526130988161305c565b9050919050565b7f4552433732313a2062616c616e636520717565727920666f7220746865207a6560008201527f726f206164647265737300000000000000000000000000000000000000000000602082015250565b60006130fb602a836124e9565b91506131068261309f565b604082019050919050565b6000602082019050818103600083015261312a816130ee565b9050919050565b7f4f776e61626c653a2063616c6c6572206973206e6f7420746865206f776e6572600082015250565b60006131676020836124e9565b915061317282613131565b602082019050919050565b600060208201905081810360008301526131968161315a565b9050919050565b7f4552433732313a20617070726f766520746f2063616c6c657200000000000000600082015250565b60006131d36019836124e9565b91506131de8261319d565b602082019050919050565b60006020820190508181036000830152613202816131c6565b9050919050565b7f4552433732314d657461646174613a2055524920717565727920666f72206e6f60008201527f6e6578697374656e7420746f6b656e0000000000000000000000000000000000602082015250565b6000613265602f836124e9565b915061327082613209565b604082019050919050565b6000602082019050818103600083015261329481613258565b9050919050565b600081905092915050565b60006132b1826124de565b6132bb818561329b565b93506132cb8185602086016124fa565b80840191505092915050565b60006132e382856132a6565b91506132ef82846132a6565b91508190509392505050565b7f4f776e61626c653a206e6577206f776e657220697320746865207a65726f206160008201527f6464726573730000000000000000000000000000000000000000000000000000602082015250565b60006133576026836124e9565b9150613362826132fb565b604082019050919050565b600060208201905081810360008301526133868161334a565b9050919050565b7f4552433732313a206f70657261746f7220717565727920666f72206e6f6e657860008201527f697374656e7420746f6b656e0000000000000000000000000000000000000000602082015250565b60006133e9602c836124e9565b91506133f48261338d565b604082019050919050565b60006020820190508181036000830152613418816133dc565b9050919050565b7f4552433732313a207472616e73666572206f6620746f6b656e2074686174206960008201527f73206e6f74206f776e0000000000000000000000000000000000000000000000602082015250565b600061347b6029836124e9565b91506134868261341f565b604082019050919050565b600060208201905081810360008301526134aa8161346e565b9050919050565b7f4552433732313a207472616e7366657220746f20746865207a65726f2061646460008201527f7265737300000000000000000000000000000000000000000000000000000000602082015250565b600061350d6024836124e9565b9150613518826134b1565b604082019050919050565b6000602082019050818103600083015261353c81613500565b9050919050565b600061354e82612599565b915061355983612599565b92508282101561356c5761356b612eec565b5b828203905092915050565b600061358282612599565b915061358d83612599565b9250827fffffffffffffffffffffffffffffffffffffffffffffffffffffffffffffffff038211156135c2576135c1612eec565b5b828201905092915050565b7f4552433732313a207472616e7366657220746f206e6f6e20455243373231526560008201527f63656976657220696d706c656d656e7465720000000000000000000000000000602082015250565b60006136296032836124e9565b9150613634826135cd565b604082019050919050565b600060208201905081810360008301526136588161361c565b9050919050565b600061366a82612599565b91507fffffffffffffffffffffffffffffffffffffffffffffffffffffffffffffffff82141561369d5761369c612eec565b5b600182019050919050565b60006136b382612599565b91506136be83612599565b9250826136ce576136cd612ebd565b5b828206905092915050565b600081519050919050565b600082825260208201905092915050565b6000613700826136d9565b61370a81856136e4565b935061371a8185602086016124fa565b6137238161252d565b840191505092915050565b6000608082019050613743600083018761262e565b613750602083018661262e565b61375d60408301856126c4565b818103606083015261376f81846136f5565b905095945050505050565b6000815190506137898161244f565b92915050565b6000602082840312156137a5576137a4612419565b5b60006137b38482850161377a565b91505092915050565b7f4552433732313a206d696e7420746f20746865207a65726f2061646472657373600082015250565b60006137f26020836124e9565b91506137fd826137bc565b602082019050919050565b60006020820190508181036000830152613821816137e5565b9050919050565b7f4552433732313a20746f6b656e20616c7265616479206d696e74656400000000600082015250565b600061385e601c836124e9565b915061386982613828565b602082019050919050565b6000602082019050818103600083015261388d81613851565b9050919050565b7f4e487b7100000000000000000000000000000000000000000000000000000000600052603160045260246000fdfe68747470733a2f2f63727970746f63616b657a2e76657263656c2e6170702f6170692f6e66742fa2646970667358221220de571652c788477e5e8aa8cc9fa7308a2164ff3f29fb516d85dc179c036454c164736f6c63430008090033",
  "linkReferences": {},
  "deployedLinkReferences": {}
}